:020000040800F2
:1000000088110020DD0100083F230008F7210008C7
:100010003D23000895060008212B00080000000081
:10002000000000000000000000000000852500081E
:100030001D08000800000000812300088725000833
:10004000F7010008F7010008F7010008F7010008B0
:10005000F7010008F7010008F7010008F7010008A0
:10006000F7010008F7010008F7010008F701000890
:10007000F7010008F7010008F7010008F701000880
:10008000F7010008F7010008F7010008F701000870
:10009000F7010008F7010008F7010008F701000860
:1000A000F7010008F7010008F7010008F701000850
:1000B000F70100082D260008F7010008F7010008E5
:1000C000F7010008F7010008F7010008F701000830
:1000D000F7010008F52A0008F7010008F7010008F9
:1000E0001F080008F7010008F7010008F7010008E1
:1000F000F7010008F7010008F7010008F701000800
:10010000F7010008F7010008F7010008F7010008EF
:10011000F7010008F7010008F7010008F7010008DF
:10012000F7010008F7010008F7010008F7010008CF
:1001300000F002F800F042F80AA090E8000C8244B7
:100140008344AAF10107DA4501D100F037F8AFF294
:10015000090EBAE80F0013F0010F18BFFB1A43F0A5
:1001600001031847BC340000DC340000103A24BFFF
:1001700078C878C1FAD8520724BF30C830C144BF0C
:1001800004680C607047000000230024002500264E
:10019000103A28BF78C1FBD8520728BF30C148BFEA
:1001A0000B607047642900F0A580732900F0DB81A3
:1001B000002070471FB51FBD10B510BD00F03CFA00
:1001C0001146FFF7F7FF02F04BFD00F05AFA03B4B7
:1001D000FFF7F2FF03BC02F0D5FC0000094880479E
:1001E00009480047FEE7FEE7FEE7FEE7FEE7FEE719
:1001F000FEE7FEE7FEE7FEE704480549054A064B31
:1002000070470000E525000831010008880B002038
:1002100088110020880D0020880D00207047000004
:100220000FB4044910B503AA029800F0A1F910BC5C
:100230005DF814FB080000202DE9F0410E4604464D
:10024000002020622046E168884730B3252805D089
:10025000D4E901219047206A401CF2E7E16820467A
:1002600000278847050018D0A5F14100192802D8B9
:1002700020354FF400673246294620462760FFF7B5
:1002800091FF40B1012804D0F61D26F0070608367C
:10029000D8E7361DD6E72846DAE7206ABDE8F081C0
:1002A00070B50C460546012A05D02878800600D591
:1002B000EA69002302E0012305E05B1C934202D2BD
:1002C000E05C0028F9D1A869E618C01AA861286A7C
:1002D000184428622846AFF3008004E0D5E90121E4
:1002E00014F8010B9047B442F8D32846AFF30080CE
:1002F00070BD00002DE9F041064600241068752904
:10030000314616A510D0AFF30080002802DA404233
:1003100013A507E031688A0701D512A502E0490755
:1003200004D511A5012401E0AFF3008000210A22C9
:1003300006F1240709E0B0FBF2FCB0FBF2F302FB8C
:100340001C00303078541846491C0028F3D123464D
:100350002A463046BDE8F04100F09AB8000000009F
:100360002D0000002B00000020000000032A40F2B6
:10037000308010F0030C00F0158011F8013BBCF147
:10038000020F624498BF11F801CB00F8013B38BF5F
:1003900011F8013BA2F1040298BF00F801CB38BF6D
:1003A00000F8013B11F0030300F0F480083AC0F0BC
:1003B000088051F8043B083A51F804CBA0E8081033
:1003C000F5E7121D5CBF51F8043B40F8043BAFF366
:1003D0000080D20724BF11F8013B11F801CB48BFC0
:1003E00011F8012B24BF00F8013B00F801CB48BFF6
:1003F00000F8012B70474FF000020429C0F0128072
:1004000010F0030C00F01B80CCF1040CBCF1020FC7
:1004100018BF00F8012BA8BF20F8022BA1EB0C019C
:1004200000F00DB85FEAC17C24BF00F8012B00F892
:10043000012B48BF00F8012B70474FF0000200B5B8
:10044000134694469646203922BFA0E80C50A0E8F7
:100450000C50B1F12001BFF4F7AF090728BFA0E8A5
:100460000C5048BF0CC05DF804EB890028BF40F871
:10047000042B08BF704748BF20F8022B11F0804FB3
:1004800018BF00F8012B70477047704770477047DE
:100490002DE9F0470D4699469246044600F124089E
:1004A0000168880604D5E06921F01001216000E0B0
:1004B0000120A84201DD471B00E00027A1697A194D
:1004C00002EB0900081AA0612078C00602D4204679
:1004D000AFF30080002608E0D4E901211AF80600F5
:1004E0009047206A401C761C20624E45F4DB207841
:1004F000C0060AD52046AFF3008006E0D4E901210A
:1005000030209047206A401C2062381EA7F1010766
:10051000F4DC07E0D4E9012118F805009047206ACF
:10052000401C2062281EA5F10105F3DC2046AFF334
:1005300000802078000602D50220BDE8F087012067
:10054000FBE710B5436913B1AFF3008001E0FFF79B
:10055000A7FE012010BD127800F124010A700022CC
:100560004A700122EDE711684FF0FF32E9E7000021
:10057000074B70B50D467B4400F047F8044628460B
:1005800000F056F810B14FF0FF3070BD204670BD3E
:100590000F26000010B5203AC0F00B80B1E81850CB
:1005A000203AA0E81850B1E81850A0E81850BFF45D
:1005B000F5AF5FEA027C24BFB1E81850A0E81850FC
:1005C00044BF18C918C0BDE810405FEA827C24BF50
:1005D00051F8043B40F8043B08BF7047D20728BFDE
:1005E00031F8023B48BF11F8012B28BF20F8023B2D
:1005F00048BF00F8012B704700487047240B0020CB
:1006000001694A1C02610878704700B58FB0CDE9D6
:1006100001310021059105497944CDE903101146C6
:100620006846FFF709FE0FB000BD0000E5FFFFFFC1
:10063000007B00F0800070477546FFF7DDFFAE4697
:1006400005006946534620F00700854618B020B5DE
:10065000FFF7D2FDBDE820404FF000064FF0000745
:100660004FF000084FF0000B21F00701AC46ACE85A
:10067000C009ACE8C009ACE8C009ACE8C0098D46C7
:10068000704710B50446AFF300802046BDE8104027
:10069000FFF79DBDFEE70000024801218170C17097
:1006A000704700001800002000B585B00F48816930
:1006B00041F480718161806900F4807000900C4881
:1006C000029002200390032004904FF40040019018
:1006D00001A9084800F080F900220121282000F03B
:1006E000E3FA282000F0D3FA05B000BD0010024064
:1006F000000011100010014070B5354C2078012821
:1007000065D172B60020207062B6207AC00705D08D
:100710000021084602F0B2FE01F028FE207A800790
:1007200022D50021084602F0A9FE29490020491DD2
:1007300002F090FC264D274A6D1D00202B78697829
:1007400002F030FD691D002002F062FC681D90F986
:10075000001090F901301F48CA18297801F0F0FD07
:10076000FF211C48FFF747FE207A400605D50021EF
:10077000084602F083FE01F027FE207A00060AD523
:100780000021084602F07AFE2089C04340F3002091
:10079000401CFFF781FF2089800511D50021084604
:1007A00002F06CFE02F0E2FB042804D002F0DEFB53
:1007B000052803D004E002F031F801E001F00CFE5E
:1007C000207A800603D5BDE8704001F005BE70BDFB
:1007D000180000204C02002010B5C0B00D4C20685D
:1007E00002F0AAFB002812D10B48C17801290ED1D2
:1007F000807801280BD101026846FFF71EFE69468A
:10080000206802F0BBFAC1B2684601F0F5FC40B0C6
:1008100010BD0000280000201800002070474FF491
:10082000004000F0CDB800009622024902A0FFF778
:10083000F7FCF9E7F835000825732C2025640A0039
:100840002DE9F05F002590F82110022903D0042142
:100850008163012595E001680A6822F00E020A60B2
:1008600001680A6822F001020A60474E464FB2153D
:10087000DFF814C1DFF81081DFF80C91DFF808A170
:10088000DFF804B10168783F13011402ACF1640C85
:10089000A8F15008A9F13C09AAF1280AABF1140B00
:1008A0004FF4801EB1422FD9B94201D1012227E075
:1008B000614501D1102223E0414521D0494501D1B4
:1008C0001A461DE0514501D1224619E0594501D192
:1008D000724615E02D4EB14201D1012210E02B4E9F
:1008E0001436B14201D110220AE0284E2836B14216
:1008F00006D0264A3C32914201D11A4600E02246F7
:100900002249091F0A6033E0B94201D101222CE0DB
:10091000614501D1102228E0414526D0494501D149
:100920001A4622E0514501D122461EE0594501D127
:1009300072461AE0B14202D14FF0807215E0134EB8
:10094000B14201D1012210E0104E1436B14201D162
:1009500010220AE00D4E2836B14206D00B4A3C3236
:10096000914201D11A4600E02246074980394A6087
:10097000012180F82110002180F82010416B01B185
:1009800088472846BDE8F09F8000024008040240E6
:1009900010B5B0F5004F0DD1074901200870074987
:1009A000002002F01BFBBDE8104044F2FF310020A4
:1009B00002F0E8BA10BD000018000020200000205E
:1009C00010B504490A68024202D00860FFF7E0FF50
:1009D00010BD0000140401402DE9F84F002400234D
:1009E000DFF8E0914FF00F0809F1040A0AF1040B57
:1009F0000BF1040EDFE00127A7403A40BA4275D15F
:100A0000DFF8C4C14D68A5EB0C0665452BD00DDCA5
:100A1000032D34D005DC35B3012D19D0022D2FD193
:100A20001BE0112D16D0122D2AD119E0B6F5881F22
:100A300019D006DCB6F5803F15D0B6F5801F1FD162
:100A400011E0B6F5001F0ED0B6F5041F18D10AE06C
:100A5000CB6815E0CB681B1D12E0CB6808330FE0B4
:100A6000CB680C330CE08B6823B1012B04D0082336
:100A7000476105E0042303E00823076100E0002349
:100A8000FF2A01D8054601E000F1040502D84FEA2B
:100A9000840603E0A4F108064FEA86062F6808FAE8
:100AA00006FC27EA0C0703FA06F647EA06072F605A
:100AB0004D68ED007ED5454DAE6946F00106AE614C
:100AC000AD6905F001050095414D24F00306771945
:100AD000BE68A5072D0F08FA05FC26EA0C06DFF80C
:100AE000F4C0604503D14FF0000C25E062E0DFF870
:100AF000E8C0604502D14FF0010C1DE0DFF8DCC01A
:100B0000604502D14FF0020C16E0DFF8D4C060451A
:100B100002D14FF0030C0FE0DFF8C8C0604502D1EE
:100B20004FF0040C08E0DFF8C0C0604502D14FF080
:100B3000050C01E04FF0060C0CFA05FC4CEA060C23
:100B4000C7F808C04D68ED0305D5D9F80050154326
:100B5000C9F8005004E0D9F800509543C9F8005096
:100B60004D68AD0305D5DAF800501543CAF80050BA
:100B700004E0DAF800509543CAF800504D68ED02E1
:100B800005D5DBF800501543CBF8005004E0DBF846
:100B900000509543CBF800504D68AD0205D5DEF806
:100BA00000501543CEF8005004E0DEF800509543A5
:100BB000CEF80050641C0A6832FA04F57FF41BAFCB
:100BC000BDE8F88F00040140000011100010024041
:100BD0000000014000080140000C014000100140ED
:100BE0000014014000180140001C014080680842C8
:100BF00001D00120704700207047002A01D0016118
:100C0000704709040161704701488068704700001F
:100C10000C0000200248816802781144816070470E
:100C20000C00002010B50748016841F01001016078
:100C3000032000F059F80F2000F006F800F026F825
:100C4000002010BD0020024070B504460D4D4FF449
:100C50007A712878B1FBF0F00B490968B1FBF0F02C
:100C600000F0F7FE08B1012070BD102C07D2002261
:100C70002146501E00F018F86C60002070BD012065
:100C800070BD00000C000020040000207047002808
:100C900009DB00F01F02012191404009800000F1B2
:100CA000E020C0F800117047F0B40D460D4B1B68F2
:100CB000C3F30223C3F10704042C00D90424191D33
:100CC000072901D2002300E0DB1E012606FA04F109
:100CD000491E294099409E40761E16403143F0BC83
:100CE00001F040BF0CED00E000F00701054A10687C
:100CF0004FF6FF03184040EA012003490843106003
:100D0000704700000CED00E00000FA052DE9F04707
:100D100004460D46002C17D0DFF83081D8F80000CB
:100D200000F00700A84211D2D8F8000020F0070018
:100D30002843C8F80000D8F8000000F00700A842D7
:100D400004D00120BDE8F0870120FBE72068404E79
:100D5000810712D5400703D5706840F4E0607060E9
:100D60002078000703D5706840F4605070607068A8
:100D7000A16820F0F000084370602078C0072CD0F4
:100D80006068012806D0022809D0316889070BD491
:100D90000120D7E73168890306D40120D2E7316802
:100DA000890101D40120CDE7716821F003010143DD
:100DB0007160FFF729FF074641F2883906E0FFF727
:100DC00023FFC01B484501D90320BBE77068616859
:100DD00000F00C00B0EB810FF1D1D8F8000000F06A
:100DE0000700A8420ED9D8F8000020F007002843D9
:100DF000C8F80000D8F8000000F00700A84201D0B1
:100E000001209FE72078400705D57068E16820F44D
:100E1000E060084370602078000706D5706821699B
:100E200020F4605040EAC100706000F03FF8716843
:100E3000084AC1F30311515CC840074908600748DC
:100E40000068FFF701FF00207CE70000002002405F
:100E500000100240063600080400002010000020A8
:100E600001480068704700000400002000B5FFF74B
:100E7000F7FF04494968044AC1F30221515CC840A4
:100E800000BD0000001002401636000800B5FFF754
:100E9000E7FF04494968044AC1F3C221515CC840D4
:100EA00000BD0000001002401636000885B014A0F6
:100EB00090E80E00C068CDE902230191049014A0CF
:100EC00000680090134B5968134801F00C02042A83
:100ED00010D0082A0ED101A8C1F38342805CC90357
:100EE0000AD55968C1F340411DF801100A4A504320
:100EF000B0FBF1F005B0704708494843FAE700003D
:100F000002030405060708090A0B0C0D0E0F10104A
:100F1000010200000010024000127A0000093D00AA
:100F20002DE9F84F0446002C0ED02078D94DC0078B
:100F30005ED06868C0F3810001280BD06868C0F3F8
:100F40008100022803D00CE00120BDE8F88F68681A
:100F5000C00306D5286880034AD56068A8BB012075
:100F6000F3E76068B0F5803F11D0A8B1B0F5A02FCD
:100F70001BD0286820F480302860286820F4802066
:100F80002860606830B3FFF73FFE06461EE0286821
:100F900040F480302860F4E7286820F4803028602E
:100FA000286820F480202860EBE7286840F480203F
:100FB0002860286840F480302860E2E7FFF724FECC
:100FC000801B642802D90320BFE711E02868800352
:100FD000F4D50DE0FFF718FE064606E0FFF714FE15
:100FE000801B642801D90320AFE728688003F5D46B
:100FF0002078DFF8A48280074FF0010A4FF0000943
:1010000045D5686810F00C0F07D06868C0F3810000
:10101000022812D16868C0030FD42868800704D55D
:101020002069012801D001208FE72868616920F03C
:10103000F80040EAC100286029E02069B8B1C8F88A
:1010400000A0FFF7E1FD064606E0FFF7DDFD801B8F
:10105000022801D9032078E728688007F5D5286899
:10106000616920F0F80040EAC10028600FE0C8F88C
:101070000090FFF7C9FD064606E0FFF7C5FD801B9F
:10108000022801D9032060E728688007F5D420787A
:10109000000726D58148A16999B1C0F800A0FFF7E3
:1010A000B3FD064606E0FFF7AFFD801B022801D91D
:1010B00003204AE7686A8007F5D5012001F062F94C
:1010C0000FE0C0F80090FFF79FFD064606E0FFF72F
:1010D0009BFD801B022801D9032036E7686A800740
:1010E000F5D42078400773D50026E869C00008D4FD
:1010F000E86940F08050E861E86900F080500090B5
:101100000126DFF89CB1DBF80000C00514D4DBF841
:10111000000040F48070CBF80000FFF775FD074633
:1011200006E0FFF771FDC01B642801D903200CE71E
:10113000DBF80000C005F4D5E068012812D0B0B19A
:1011400005281DD0286A20F001002862286A20F0B6
:1011500004002862E06841F2883B28B3FFF754FDA1
:1011600007461DE0286A40F001002862F2E7286A7D
:1011700020F001002862286A20F004002862E9E7D4
:10118000286A40F004002862286A40F001002862C2
:10119000E0E7FFF739FDC01B584501D90320D4E62D
:1011A000286A8007F5D50DE0FFF72EFD074606E01B
:1011B000FFF72AFDC01B584501D90320C5E6286A60
:1011C0008007F5D4012E03D1E86920F08050E86152
:1011D000E069A0B36968C1F38101022946D0022801
:1011E00005D0C8F86090FFF70FFD04463AE0C8F854
:1011F0006090FFF709FD064606E0FFF705FD801B3E
:10120000022801D90320A0E628688001F5D4206ACD
:10121000B0F5803F05D16868A16820F4003008432C
:101220006860D4E908010843696821F4741108432F
:101230006860C8F860A0FFF7E7FC044607E026E016
:10124000FFF7E2FC001B022801D903207DE6286895
:101250008001F5D51BE0FFF7D7FC001B022801D960
:10126000032072E628688001F5D410E001280CD034
:101270006868226A00F48031914204D1616A00F406
:101280007010884203D001205FE601205DE6002057
:101290005BE600000010024000004242800442422F
:1012A0000070004070B50446002C06D04FF4005684
:1012B00094F85100002510B106E0012070BD84F8BB
:1012C0005050204600F034F8022084F85100206885
:1012D000016821F040010160D4E901010843D4E92B
:1012E00003121143084361690843218B01F4007123
:1012F0000843E1690843216A0843A16A0843216859
:101300000860A069042101EA104021684860A06AD1
:10131000B04202D12168E06A08612068C16921F405
:101320000061C1616565012084F85100002070BD35
:1013300070B586B000682D49884254D12C48816927
:1013400041F004018161816901F004010191816929
:1013500041F004018161816901F004010191816919
:1013600041F004018161816901F004010191816909
:1013700041F004018161816901F0040101918169F9
:1013800041F480518161806900F480500190102007
:1013900002900120039003240594164E02A93046C2
:1013A000FFF71AFB012210213046FFF726FC0A2026
:1013B00002F008F92020029002250395059402A965
:1013C0003046FFF709FB402002900395059402A9DF
:1013D0003046FFF701FB802002900395059402A997
:1013E0003046FFF7F9FA06B070BD0000003001404A
:1013F00000100240000801402DE9F84F04468A46DB
:1014000091461D46002660684FF0040BB0F5827FC0
:1014100001D1A06888B194F85000012818D00120AB
:1014200084F85000FFF7F0FB074694F851004FF0A6
:10143000000801280ED00226D6E084F851B04B46B1
:10144000524651462046009500F0BBF9BDE8F88FA2
:101450000220FBE7BAF1000F2DD0B9F1000F2AD01E
:1014600084F851B0C4F85480C4F838A0A4F83C9073
:10147000A4F83E90C4F83080A4F83480A4F83680F4
:10148000C4F84080C4F84480A06A4FF4005948452D
:101490000CD12068016821F40051016020680168C6
:1014A00041F400510160E08F401EE087A068B0F574
:1014B000004F02D006E0012696E02068016821F482
:1014C0008041016020680168490603D4016841F049
:1014D00040010160E068B0B131E020688168C9076F
:1014E00009D0007BA16B0870A06B401CA063E08F4B
:1014F000401EE08707E0FFF787FBC01BA84201D32F
:10150000681C04D11DB1E08F0028E6D11AE0032643
:101510006AE020688168C90709D0C068A16B0880AB
:10152000A06B801CA063E08F401EE08707E0FFF700
:101530006BFBC01BA84201D3681C1DD1E5B1E08F35
:101540000028E6D1A06A484535D12068016841F4F9
:101550008051016020680168C90403D5016821F445
:101560008051016001222B4611462046009700F071
:10157000B7FF18B1032637E0032635E0E068B0F581
:10158000006F11D02068007BA16B087001222B46F0
:1015900011462046009700F0A3FF50B1606D40F067
:1015A0000200606503261FE02068C068A16B088008
:1015B000ECE72068C0683A462946204600F016FF4E
:1015C00008B12020606520688068C043C00608D448
:1015D000204600F055FF01280DD021684FF6EF702E
:1015E0008860606D00B10126012084F8510084F804
:1015F000508030462AE7606D40F002006065206848
:10160000016821F4005101602068016841F4005133
:101610000160E6E72DE9F84F04468A4693461D46E9
:10162000002694F8500001280DD04FF0010984F8ED
:101630005090FFF7E9FA074694F85100B0460128A8
:1016400004D00226B7E00220BDE8F88FBAF1000FFF
:101650001CD05FEA0B0019D0032084F85100C4F8B5
:101660005480C4F830A0A4F834B0A4F836B0C4F85C
:101670003880A4F83C80A4F83E80C4F84480C4F8C4
:101680004080A068B0F5004F02D006E0012692E04D
:101690002068016841F480410160A06A4FF4005A5B
:1016A000504509D12068016821F40051016020688B
:1016B000016841F40051016020680168490603D4C3
:1016C000016841F040010160E068B0F5006F05D0AD
:1016D000606878B3BBF1010F2DD04DE0606810B1A8
:1016E000BBF1010F20D1206B21680088C860206BFE
:1016F000801C2063E08E401EE08615E02068816833
:10170000890709D5216B0988C160206B801C206383
:10171000E08E401EE08607E0FFF776FAC01BA84285
:1017200001D3681C04D11DB1E08E0028E6D126E06B
:10173000032640E0FFE7206B216800780873206BE8
:10174000401C2063E08E401EE08615E02068816822
:10175000890709D5216B09780173206B401C206330
:10176000E08E401EE08607E0FFF74EFAC01BA8425D
:1017700001D3681C16D1ADB1E08E0028E6D1A06A75
:10178000504504D12068016841F4805101603A4617
:101790002946204600F062FE08B120206065A0685E
:1017A00010B105E0032606E02068C168806800905B
:1017B000606D00B1012684F8519084F85080304665
:1017C00042E72DE9F84F04460A9E8A46934698461A
:1017D0000125002794F8500001280ED0012084F83C
:1017E0005000FFF711FA814694F851006168012812
:1017F0000CD0B1F5827F07D102E00220BDE8F88F5E
:10180000A16809B9042801D002271BE1BAF1000F31
:101810003DD0BBF1000F3AD05FEA080037D094F812
:101820005100042802D0052084F851000020606592
:10183000C4F838B0A4F83E80A4F83C80C4F830A0C6
:10184000A4F83680A4F8348020646064A06A4FF461
:10185000005A504509D12068016821F40051016007
:101860002068016841F40051016020680168490660
:1018700003D4016841F040010160E068B0F5006FF9
:1018800007D06068E8B3B8F1010F51D090E00127AC
:10189000D8E0606810B1B8F1010F42D1206B216827
:1018A0000088C860206B801C2063E08E401EE086AC
:1018B00037E020688168890717D5E18EA9B1012D2D
:1018C00013D1216B0988C160206B801C2063E08EDE
:1018D000401EE0860025E08E38B9A06A504504D14C
:1018E0002068016841F48051016020688168C9075F
:1018F0000DD0E18F59B1C068A16B0880A06B801C2E
:1019000000E015E0A063E08F401EE0870125FFF7AF
:101910007BF9A0EB0900B04203D3701C01D0032770
:1019200090E0E08E0028C4D1E08F0028C1D145E0CE
:10193000206B216800780873206B401C2063E08EC8
:10194000401EE08634E020688168890717D5E18E63
:10195000A9B1012D13D1216B09780173206B401CB3
:101960002063E08E401EE0860025E08E38B9A06A34
:10197000504504D12068016841F48051016020681D
:101980008168C9070BD0E18F49B1C068A16B0870AD
:10199000A06B401CA063E08F401EE0870125FFF78D
:1019A00033F9A0EB0900B04201D3701C18D1BEB1CD
:1019B000E08E0028C7D1E08F0028C4D1A06A50452E
:1019C00012D10122334611462046CDF8009000F096
:1019D00087FD38B1606D40F002006065032731E09B
:1019E00003272FE02068C06820688068C043C006D5
:1019F00008D4204600F044FD01280DD021684FF6A0
:101A0000EF7088604A463146204600F027FD98B1C5
:101A100001272020606515E0606D40F002006065E0
:101A20002068016821F4005101602068016841F4D8
:101A3000005101600127E5E7A06818B92068C16876
:101A4000806800900120503460700020207038467B
:101A5000D4E610B5401EB0F1807F01D3012010BD47
:101A60004FF0E02460610F21601701F07BF8002047
:101A7000A06107202061002010BD7047704770B53D
:101A800090F83C20012A19D0012600F83C6F022270
:101A9000427050F83C2C5468936824F070050C6830
:101AA0002C4323F0800349681943546050F83C2CC0
:101AB0009160467000210170002070BD022070BD51
:101AC00010B50446002C03D094F83D0010B107E097
:101AD000012010BD002084F83C00204600F00CF8E6
:101AE000022084F83D00211D206800F0D9FD01206E
:101AF00084F83D00002010BD08B502681149B2F11C
:101B0000804F07D1CA6942F00102CA61CA6902F076
:101B10000102009200680C4A904211D1C86940F05D
:101B20000200C861C86900F0020000900122022191
:101B30001D20FFF7B9F8BDE808401D20FFF7A7B842
:101B400008BD00000010024000040040022180F89F
:101B50003D1001688A6802F00702062A03D00A686D
:101B600042F001020A60012180F83D100020704718
:101B70000168CA6842F00102CA600068816801F029
:101B80000701062903D0016841F00101016000202E
:101B90007047022180F83D1001680A6A41F2111372
:101BA0001A4207D10A6A9B101A4203D10A6822F02E
:101BB00001020A60012180F83D1000207047016891
:101BC000CA6822F00102CA600068016A41F211127B
:101BD000114207D1016A9210114203D1016821F02C
:101BE000010101600020704770B5044694F83C0084
:101BF000012817D0012584F83C50022084F83D00CC
:101C00002068826822F0770222F47F4282600868AE
:101C1000502831D00DDC20284DD005DCB0B3102881
:101C20004ED148E0022070BD302844D0402847D132
:101C300037E060282BD0702806D0B0F5805F3FD009
:101C4000B0F5005F3CD10BE0CB68D1E90121206801
:101C500000F06EFD2068816841F0770181602FE01F
:101C6000CB68D1E90121206800F062FD206881681D
:101C700041F48041816023E0CA684968206800F02F
:101C800069FD5021206800F05DFD19E013E0CA688D
:101C90004968206800F06FFD6021206800F052FD67
:101CA0000EE0CA684968206800F054FD40212068B1
:101CB00000F048FD04E022680146104600F042FDB5
:101CC0003C3465700020207070BD704770B50446CC
:101CD000206801694FF00005C943890716D4C1681F
:101CE000C943890712D4E91E0161012020772068C9
:101CF0008069800703D02046FFF7E7FF05E0204614
:101D000000F09BF8204600F099F8257720680169DB
:101D1000C943490718D4C168C943490714D46FF0AF
:101D200004010161022020772068806910F4407F5F
:101D300003D02046FFF7C9FF05E0204600F07DF8FC
:101D4000204600F07BF8257720680169C943090720
:101D500017D4C168C943090713D46FF008010161A2
:101D6000042020772068C069800703D02046FFF751
:101D7000ACFF05E0204600F060F8204600F05EF879
:101D8000257720680169C943C90618D4C168C943C9
:101D9000C90614D46FF01001016108202077206873
:101DA000C06910F4407F03D02046FFF78EFF05E0A6
:101DB000204600F042F8204600F040F825772068E1
:101DC0000169C943C90708D1C168C943C90704D11A
:101DD000891E0161204600F033F820680169C9437B
:101DE000090609D4C168C943090605D46FF080010A
:101DF00001612046FFF741FE20680169C943490699
:101E000009D4C168C943490605D46FF04001016196
:101E1000204600F035F820680169C94389060BD4D3
:101E2000C168C943890607D46FF0200101612046CB
:101E3000BDE87040FFF722BE70BD704770470000DC
:101E400010B500680A4988420DD10A4C227852B177
:101E50000A480949006801F015F8FF210648FEF715
:101E6000CAFA00202070BDE8104000F053BE000008
:101E70000004004000000020340000202800002062
:101E80007047704770B5044622681068D16852697F
:101E900000F00F03002B08D1850606D58D0604D56A
:101EA0002046BDE8704000F0E6BC002B5ED002F09A
:101EB000010301F490752B4358D0C30705D0CB051F
:101EC00003D5E36B43F00103E363430705D5D30771
:101ED00003D0E36B43F00203E363830705D5D30725
:101EE00003D0E36B43F00403E363030705D5D20794
:101EF00003D0E26B42F00802E263E26B002A2AD0D0
:101F0000800604D5880602D5204600F0B4FC20687F
:101F10004069C0F38010E16B090700D400B320468C
:101F200000F08EFC20684169490615D5416921F011
:101F300040014161606B58B115494163606BFEF728
:101F40007FFC002807D0606B416BBDE870400847FC
:101F50002046FFF796FF70BD2046FFF792FF70BD49
:101F60002046FFF78EFF0020E06370BD020606D515
:101F70000A0604D52046BDE8704000F055BD400675
:101F8000F3D54806F1D52046BDE8704000F066BCA8
:101F90003128000870B50446002C04D094F83900AC
:101FA000002510B106E0012070BD84F838502046AD
:101FB00000F022F8242084F839002068C16821F458
:101FC0000051C160204600F0A5FC2068016921F4A1
:101FD000904101612068416921F02A014161206836
:101FE000C16841F40051C160E563202084F83900E4
:101FF00084F83A00002070BD30B585B0002401940B
:102000000294039404940068194988422DD1194818
:10201000816941F480418161816901F480410091CD
:10202000816941F004018161806900F00400009041
:102030004FF40070019002200290012003900320D1
:1020400004900D4D01A92846FEF7C6FC2915019103
:10205000029401A92846FEF7BFFC01220021252099
:10206000FEF722FE2520FEF712FE05B030BD00006F
:1020700000380140001002400008014090F83A305A
:10208000202B01D002207047F9B1F2B190F838301E
:10209000012B1CD081628285C2850021C16322226E
:1020A00080F83A2080F838100168CA6842F48072DB
:1020B000CA6001684A6942F001024A610068C16869
:1020C00041F02001C16000207047012070470220CC
:1020D0007047000010B572B600F01CFD0E4C207861
:1020E0006378411CCAB20D4922700B54FF2A09D1F2
:1020F0000B48006800F0C6FEFF210848FEF77BF998
:102100000020207000F0FCFC03490122491C054816
:10211000FFF7B4FF62B610BD0000002034000020BD
:1021200028000020340100202DE9F84304460D4624
:1021300091461E4694F83900202802D00220BDE8BE
:10214000F883B5B1B9F1000F13D094F83800012825
:1021500011D0012084F838000027E763212084F89B
:102160003900FEF751FD8046A4F82490A4F826908B
:102170002DE00120E3E70220E1E7E08C401EE0844F
:10218000A068B0F5805F09D0434600228021204638
:10219000009600F07CFCB0B10320D0E7434600225B
:1021A00080212046009600F072FC08B10320C6E7AB
:1021B00028882168C0F308004860206908B16D1CB8
:1021C00005E0AD1C03E0216815F8010B4860E08CC8
:1021D0000028D2D14346002240212046009600F03C
:1021E00056FC08B10320AAE720203834607027701D
:1021F0000020A4E77047FEE770B505460C4600F0E6
:10220000FDFA204600F0A0FE002123462A4608469B
:1022100001F0B6F941F27071002001F04BF9044869
:102220000021C1708170BDE87040042000F0A4BEA0
:102230001800002070B586B0354800248470012550
:10224000C570002000F0D0FF002001F097F90021B8
:10225000084601F013F90121002001F00FF90121D6
:10226000002001F0ADF800221146104600F0BEFF3C
:102270000121002001F094F82F220421002001F018
:102280000DF904268DF8156009208DF81400022040
:102290008DF816008DF8174005A9002000F0E6FF24
:1022A0008DF810408DF81140FF208DF80F008DF84B
:1022B0000E400820ADF80C0003A9002001F000F842
:1022C0008DF8086007208DF809008DF80A408DF818
:1022D0000B5002A9002001F045F80023032211460B
:1022E0001846009400F094FF44F2FF31002000F003
:1022F00049FE07221621002001F0ECF805490020D4
:1023000001F06EF8002000F007F806B070BD000084
:1023100018000020806DC33510B5074B01229A705C
:102320000146002001F084F8052000F025FEBDE8FC
:10233000104000F039B8000018000020FEE7704798
:1023400010B5084A0123D370937053785B1C537007
:10235000014605A0FDF764FFBDE810400020FFF72F
:10236000DBBF000018000020257300000348012196
:10237000C17081700020FFF7CFBF0000180000205F
:102380007047000008B507494FF4FA520968B1FBDD
:10239000F2F14143009100BF0098411E0091FAD232
:1023A00008BD00000400002010B5064C01220221E7
:1023B0002046FEF722FC20460022BDE81040012105
:1023C000FEF71BBC0008014002480121C17081706A
:1023D000704700001800002003480121C17081707F
:1023E0000020FFF799BF000018000020F8B5044650
:1023F0004FF4827560684FF48063A8420AD1A068E8
:10240000B0F5004F01D0984204D12068066826F04C
:10241000400606606068A84210D1A06898420DD1BD
:102420000B46009200220121204600F059F898B195
:10243000606D40F0200060650320F8BD0B460092FF
:1024400000228021204600F04BF828B1606D40F05A
:10245000200060650320F8BD0020F8BD38B50446B3
:102460000B46009200228021204600F039F828B166
:10247000606D40F020006065032038BD002038BD4D
:102480000120704710B5114C0F4820604FF4827046
:1024900060600020A060E060206160614FF4007126
:1024A000A1610821E16120626062A0620720E06210
:1024B0002046FEF7F7FE08B1FEF7B6F9206801687E
:1024C00041F04001016010BD003001407401002066
:1024D0000A46014614230148FEF78EBF740100200E
:1024E0002DE9F04104460E4617461D46DDF81880DA
:1024F00008E0681C06D0FEF787FBA0EB0800A842A6
:102500000BD255B12068806836EA00002FD0002039
:10251000B842EED10020BDE8F0812068416821F08A
:10252000E00141606068B0F5827F0BD1A068B0F532
:10253000004F02D0B0F5806F04D12068016821F00F
:1025400040010160A06AB0F5005F09D12068016810
:1025500021F4005101602068016841F400510160DC
:10256000012050346070002020700320D3E7012048
:10257000CEE700000A46014614230148FFF74AB897
:10258000740100207047FEF745BB30B58FB028219D
:1025900005A8FDF752FF14216846FDF74EFF012103
:1025A00005910804069000240794099102250C95D2
:1025B0000D904FF4E0100E9005A8FEF7B1FC00B1AD
:1025C000FEE70F200090019502944FF48060039085
:1025D000049402216846FEF799FB002800D0FEE72C
:1025E0000FB030BD0D48016841F001010160416844
:1025F0000B4A1140416001680A4A114001600168BC
:1026000021F480210160416821F4FE0141604FF412
:102610001F0181600449C003086070470010024038
:102620000000FFF8FFFFF6FE08ED00E00148FFF7AD
:102630004DBB00000C02002010B586B000240294AF
:102640000394049405940094019414481249016081
:102650004FF46161416084606421C1600461846100
:10266000FFF72EFA08B1FEF7DFF84FF48050029022
:1026700002A90A48FFF7B8FA08B1FEF7D5F80094A6
:10268000019469460548FFF7FAF9002801D0FEF7E2
:10269000CBF806B010BD0000000400400C02002082
:1026A0002DE9F04102681D4D1D4E1E4FDFF878C028
:1026B0001E4B4FF08048A84209D0984207D04045B1
:1026C00005D0B04203D0B84201D0604503D122F01A
:1026D00070044A682243A84209D0984207D0404576
:1026E00005D0B04203D0B84201D0604503D122F4F6
:1026F0004074CA6822434C6922F08002224302607F
:102700008A68C2620A688262A84201D0984201D1F6
:102710000969016301214161BDE8F081002C01409C
:102720000004004000080040000C0040003401405C
:1027300010B5846824F47F4442EA03220A4322430A
:10274000826010BD826822F070020A4342F00701E5
:102750008160704710B5036A046A24F001040462C2
:10276000846924F0F00444EA021423F00A020A43C4
:102770008461026210BD10B5036A23F01003036286
:102780008469036A24F4704444EA023223F0A0030B
:1027900043EA01118261016210BD000010B586B0EC
:1027A0000024029403940494059400940194124824
:1027B0004FF08041016047214160C4608460046142
:1027C0008461FFF77DF908B1FEF72EF84FF48050D1
:1027D000029002A90848FFF707FA08B1FEF724F8AB
:1027E0000094019469460448FFF749F9002801D094
:1027F000FEF71AF806B010BDCC01002010B5064C4B
:10280000002202212046FEF7F8F920460122BDE809
:1028100010401146FEF7F1B90008014003480121BC
:10282000C17081700020FFF777BD00001800002004
:1028300010B5406A0021C185C184FFF722FB10BD9D
:102840000168CA6822F49072CA6001684A6922F07D
:1028500001024A61202180F83A10704710B50168E2
:10286000CA6822F04002CA60202180F83910FFF7C0
:10287000C1FC002010BD10B590F83A10222901D0FB
:10288000022010BD8168B1F5805F11D0016919B3D4
:102890000168496801F07F03816A4A1C82620B70FB
:1028A000C18D491E0904090CC1851CD0002010BD32
:1028B000816A02693AB102685268D2B20A80816ABA
:1028C000491C8162ECE702685268C2F308020A8080
:1028D000816A891C8162E3E701684A68816A4B1C4E
:1028E00083620A70DCE70168CA6822F02002CA60CD
:1028F0000168CA6822F48072CA6001684A6922F0DD
:1029000001024A61202180F83A10FFF7E3FB002022
:1029100010BD00002DE9F041044620680169E2681D
:1029200021F4405111430161A168206901436069AC
:1029300001432068C26841F20C639A430A43C260B3
:1029400020684169A26921F4407111434161354910
:10295000206864253226884232D1FEF797FA00EBD0
:10296000C00101EB001061686FF018078900B0FB2F
:10297000F1F2B2FBF5F2B0FBF1F37A4303EB820222
:10298000B0FBF1F306EB0212B2FBF5F2B3FBF5F389
:1029900002F0F00202EB0312B0FBF1F3B0FBF1F036
:1029A000B0FBF5F0784303EB800006EB0010B0FBC2
:1029B000F5F0216800F00F0010448860BDE8F08158
:1029C000FEF754FA00EBC00101EB001061686FF0F4
:1029D00018078900B0FBF1F2B2FBF5F2B0FBF1F39E
:1029E0007A4303EB8202B0FBF1F306EB0212B2FB77
:1029F000F5F2B3FBF5F302F0F00202EB0312B0FBC9
:102A0000F1F3B0FBF1F0B0FBF5F0784303EB80009D
:102A100006EB0010B0FBF5F0216800F00F00104449
:102A20008860CBE70038014090F83910212901D0A7
:102A3000022070478168B1F5805F0CD0016A4A1CA2
:102A40000262026809785160C18C491E0904090CB0
:102A5000C18410D019E0016A02680988C1F3080135
:102A60005160016919B1016A491C0162ECE7016A10
:102A7000891C0162E8E70168CA6822F08002CA6026
:102A80000068C16841F04001C160002070472DE935
:102A9000F04104460E4617469846069D1DE0681C08
:102AA0001BD02DB1FEF7B0F8A0EB0800A84214D956
:102AB0002068C16821F4D071C1602068416921F0AB
:102AC00001014161202084F8390084F83A00002097
:102AD00084F838000320BDE8F0812068006836EAF9
:102AE000000004D00020B842D9D00020F3E7012034
:102AF000F9E700000148FFF7C5B9000034010020E4
:102B000003496FF00100096808610148FFF730B818
:102B10000C0200200148FFF752B800000C02002010
:102B2000FEE7000010B50D490B4A0A60486000201E
:102B30008860C86008610C224A6188610846FFF716
:102B400029FA08B1FDF770FEBDE8104001220449E2
:102B50000248FFF793BA000000380140340100201A
:102B6000010000200907090E002804DB00F1E02025
:102B700080F80014704700F00F0000F1E02080F8AA
:102B8000141D70477047000013B50A2301226946DF
:102B90000248FFF7C9FA00981CBD0000340100206C
:102BA00070B586B0002003901948816941F0040196
:102BB0008161806900F004000190042002900124EA
:102BC000049403250595134E02A93046FDF704FF32
:102BD000142000F0C7F80B2102910394049405958A
:102BE00002A93046FDF7F8FE012208213046FEF723
:102BF00004F8012202213046FDF7FFFF01221146B1
:102C00003046FDF7FAFF142000F0ACF806B070BDB6
:102C10000010024000080140B0F8D02753184FF4CC
:102C2000FA62934201D301207047B0F8D4371944B7
:102C3000914209D9B1FBF2F302FB1311B0F8D207AC
:102C4000814201D30120704700207047B0F8D407BB
:102C50000844B0F5FA6F01D9012070470020704791
:102C6000FDF7E0FFFFF791FC1B480024A0F8D247D6
:102C7000A0F8D447A0F8D047184908604FF4165080
:102C8000FFF750FFFFF78AFDFFF7D6FCFFF7FAFBCF
:102C9000FFF786FFFFF7CEFAFDF706FD10A0FDF760
:102CA000BFFA1CA0FDF7BCFA1EA0FDF7B9FA214A35
:102CB000002121A0FDF7B4FA09A0FDF7B1FA4FF405
:102CC0007A7000F04FF82548047025480480FDF71D
:102CD00083FDFDF711FDFAE74C03002028000020DA
:102CE0002A2A2A2A2A2A2A2A2A2A2A2A2A2A2A2A44
:102CF0002A2A2A2A2A2A2A2A2A2A2A2A2A2A2A2A34
:102D00002A2A2A2A2A2A2A2A2A2A2A2A2A2A0A0D60
:102D1000000000002D2D3E506F776572204F6E0A27
:102D20000D0000002D2D3E56312E322E33350A0D6A
:102D300000000000806DC3352D2D3E4458205358AF
:102D400031323632284C4C434336382920544553CF
:102D500054203A25642025640A0D00001800002044
:102D60002000002070B504464FF47A75284600F024
:102D700029FC641EA4B2F9D270BD00002DE9F8430D
:102D80000446894600260096B4F8D2073C4F011944
:102D900068467A88FDF7EAFAB4F8D25740F2CD785F
:102DA0001FE0B4F8D207401CB0FBF8F108FB11009B
:102DB000A4F8D20701197A886846FDF7D7FAB888CF
:102DC000411CB980C5F5FA61884201DDA4F8D267DB
:102DD000B4F8D207A8424BD0BDF80000401EFE2830
:102DE00005D3BDF800000028DBD0FF28D9D8BE806D
:102DF0007988BDF80020B4F8D207114408444FF494
:102E0000FA65A84202D9A4F8D26703E0204600F090
:102E100093F868BB7988B4F8D20721440144BDF81F
:102E200000204846FDF7A2FA7888BDF8001001445A
:102E3000B4F8D2072044FDF7DEFAB4F8D01778884A
:102E40000A1ABDF80010521A92FBF5F305FB132283
:102E5000A4F8D027B4F8D22708441044B0FBF8F106
:102E600008FB1100A4F8D207204600F065F818B15D
:102E7000A4F8D267A4F8D467BDF80000BDE8F883D1
:102E80002C000020F7B504460E462A4DBDF8080078
:102E90002978084481B22046FFF7BEFE08B1002021
:102EA000FEBDBDF808002978084481B22046FFF72E
:102EB000CDFE50B1BDF8080029780844B4F8D21707
:102EC000884202D20020A4F8D407BDF8080029786F
:102ED000084481B22046FFF7B9FE48BBB4F8D407D6
:102EE0002A78204402A9FDF741FA2978B4F8D407DA
:102EF00021440844BDF808203146FDF737FABDF8F3
:102F000008002978B4F8D427431813444FF4FA6220
:102F1000B3FBF2F502FB1533A4F8D437B4F8D0377D
:102F200008441844B0FBF2F102FB1100A4F8D007EA
:102F30002046FEBD2C000020B0F8D007002801D0AC
:102F400000207047012070471CB500218DF8041047
:102F50008DF805108DF803008DF802100820ADF8EB
:102F600000006946002000F0ABF91CBD0148007963
:102F700070470000180000200149087170470000E8
:102F8000180000201CB508A2126801920A0A8DF8E8
:102F900005208DF8061000210B460091032201A99F
:102FA00000F0D8F81CBD00000200000043F60952F2
:102FB000B0FBF2F1534201FB0300531003EB8030EE
:102FC000B0FBF2F000EB81307047800170470000E9
:102FD00004210148FDF70ABE000801403EB50C4639
:102FE0000AA1096802910021019102210A4600917B
:102FF00001AB02A900F048F8002806D19DF8052091
:103000009DF8043002EB032222803EBD1200000036
:103010003EB50C460EA109680291002101910321E1
:10302000009101AB022202A900F02EF800280ED177
:103030009DF804104942491021709DF90510891C22
:10304000891061709DF8061049424910A1703EBD7B
:10305000140000003EB50C460AA109680291002147
:10306000019102210A46009101AB02A900F00CF87F
:10307000002805D19DF8041021709DF8051061709D
:103080003EBD0000130000002DE9F04188461546C2
:103090001F46069CFFF79CFF0028FBD10D4E002227
:1030A00010213046FDF7A9FD1DB129464046FFF726
:1030B00061FAFFF78DFF0028FBD11CB1214638468D
:1030C000FFF706FA012210213046FDF796FD002099
:1030D000BDE8F0810008014010B5FFF779FF002836
:1030E000FBD11420FFF73EFE0A4C002208212046A7
:1030F000FDF783FD3220FFF735FE0122082120462F
:10310000FDF77BFD1420FFF72DFEFFF761FF002880
:10311000FBD110BD0008014038B5FFF759FF00286A
:10312000FBD10AA000680090094C00221021204623
:10313000FDF763FD02216846FFF71CFA012210210A
:103140002046FDF75AFD002038BD0000C0000000F9
:10315000000801402DE9F041884615461F46069CAF
:10316000FFF736FF0028FBD10D4E0022102130461C
:10317000FDF743FD1DB129464046FFF7FBF9FFF778
:1031800027FF0028FBD11CB121463846FFF7F2F992
:10319000012210213046FDF730FD0020BDE8F0810E
:1031A000000801401CB506A4246801948DF80510A0
:1031B00000931346032201A9FFF766FF1CBD000020
:1031C0001E0000001CB507A4246801940C0A8DF8A9
:1031D00005408DF8061000931346042201A9FFF75D
:1031E00053FF1CBD1D000000FFF776BF1CB507A3F1
:1031F0001B6801938DF805108DF8062000210B4601
:103200000091032201A9FFF7A5FF1CBD8F0000005C
:103210002DE9FF410A9D12A4D4E90067A468CDE915
:10322000016703940C0A8DF805408DF80610110A09
:103230008DF807108DF80820190A8DF809108DF8FF
:103240000A30290A8DF80B108DF80C5000210B461E
:103250000091092201A9FFF77DFF04B0BDE8F081CC
:103260000800000000000000000000003EB5054618
:103270000C4611A003C8CDE9010120788DF80500A6
:1032800060788DF80600A0788DF80700E07800F0EF
:1032900001008DF80800002003460090052201A9D6
:1032A0002846FFF757FF002804D1627801212846FD
:1032B00000F038F93EBD00008B0000000000000067
:1032C000FEB505460C4625A003C8CDE901012088BE
:1032D000000A8DF8050020788DF80600A0788DF89A
:1032E0000700E0788DF808002079002801D001203F
:1032F00000E000208DF80900607908B1012000E0AD
:1033000000208DF80A0000263346072201A928462E
:103310000096FFF71FFF002818D1009640F236767E
:1033200001236A4631462846FFF74CFF00280DD19D
:10333000607901280BD09DF8000040F00400009057
:1033400001236A463146284600F02AF9FEBD9DF861
:10335000000020F004000090F2E700008C00000064
:10336000000000000EB50CA20CCACDE901230A78BA
:103370008DF805204A788DF806208A788DF8072088
:10338000C9788DF8081000210B460091052201A98B
:10339000FFF7E0FE0EBD00009500000000000000F9
:1033A0001CB506A2126801928DF8051000210B468B
:1033B0000091022201A9FFF7CDFE1CBD8A0000008A
:1033C0001CB506A2126801928DF8051000210B466B
:1033D0000091022201A9FFF7BDFE1CBD960000006E
:1033E00010B504460846FFF7E1FD01462046BDE85A
:1033F000104000F001B800000EB50BA20CCACDE9D8
:1034000001230A0E8DF805200A0C8DF806200A0A01
:103410008DF807208DF8081000210B460091052239
:1034200001A9FFF797FE0EBD860000000000000016
:1034300010B502460846B0F5802F01D3022010BD1A
:10344000FFF7C3FD0146BDE810401046AFF3008012
:103450001CB509A2126801920A0C8DF805200A0A0F
:103460008DF806208DF8071000210B4600910422EC
:1034700001A9FFF76FFE1CBD820000001CB506A26B
:10348000126801928DF8051000210B46009102226E
:1034900001A9FFF75FFE1CBD8000000008B58DF894
:1034A00000108DF8012002236A4640F6111100F049
:1034B00077F808BD10B502460846B0F5802F01D355
:1034C000022010BDFFF781FD0146BDE81040104607
:1034D00000F012B81CB507A31B6801938DF8051006
:1034E0008DF8062000210B460091032201A9FFF769
:1034F00031FE1CBD8E0000001CB509A212680192AD
:103500000A0C8DF805200A0A8DF806208DF80710A0
:1035100000210B460091042201A9FFF71BFE1CBDF0
:1035200083000000F8B506460C46154600200090C2
:1035300040F6890701236A4639463046FFF742FEC6
:1035400000280CD1012C0BD09DF8000040F00400A5
:10355000009001236A463946304600F021F8F8BD54
:10356000062D05D09DF8000040F004000090F0E723
:103570009DF8000020F004000090EAE7FFF7CCBDC2
:103580001CB506A4246801948DF805100093134619
:10359000022201A9FFF7DEFD1CBD00000E000000A5
:1035A0001CB507A4246801940C0A8DF805408DF819
:1035B000061000931346032201A9FFF7CBFD1CBDA3
:1035C0000D00000070B5054600240A4E3068C56243
:1035D000F560306844623046FEF7B8FA306801E0C2
:1035E000416A8CB2AC42FBD1BDE870400148FEF7A5
:1035F000D0BA0000CC0100204572726F725F486142
:103600006E646C65720000000000000000000102A2
:10361000030406070809000000000102030400007B
:103620004036000800000020340000006C01000853
:10363000743600083400002054110000880100088E
:10364000000000000024F400000000000100000061
:10365000100000000000000000000000000000005A
:103660000000000000000000000000000200020056
:043670000000000056
:04000005080001DD11
:00000001FF
