:020000040800F2
:1000000088110020DD01000809290008A92700083F
:100010000529000895060008553200080000000078
:10002000000000000000000000000000B92B0008E4
:100030006D080008000000006D290008BB2B0008B7
:10004000F7010008F7010008F7010008F7010008B0
:10005000F7010008F7010008F7010008F7010008A0
:10006000F7010008F7010008F7010008F701000890
:10007000F7010008F7010008F7010008F701000880
:10008000F7010008F7010008F7010008F701000870
:10009000F7010008F7010008F7010008F701000860
:1000A000F7010008F7010008F7010008F701000850
:1000B000F7010008812C0008F7010008F70100088B
:1000C000F7010008F7010008F7010008F701000830
:1000D000F70100081D320008F7010008F7010008C9
:1000E0006F080008F7010008F7010008F701000891
:1000F000F7010008F7010008F7010008F701000800
:10010000F7010008F7010008F7010008F7010008EF
:10011000F7010008F7010008F7010008F7010008DF
:10012000F7010008F7010008F7010008F7010008CF
:1001300000F002F800F042F80AA090E8000C8244B7
:100140008344AAF10107DA4501D100F037F8AFF294
:10015000090EBAE80F0013F0010F18BFFB1A43F0A5
:10016000010318479C3D0000BC3D0000103A24BF2D
:1001700078C878C1FAD8520724BF30C830C144BF0C
:1001800004680C607047000000230024002500264E
:10019000103A28BF78C1FBD8520728BF30C148BFEA
:1001A0000B607047642900F0A580732900F0DB81A3
:1001B000002070471FB51FBD10B510BD00F03CFA00
:1001C0001146FFF7F7FF03F005F900F05AFA03B400
:1001D000FFF7F2FF03BC03F07BF8000009488047FB
:1001E00009480047FEE7FEE7FEE7FEE7FEE7FEE719
:1001F000FEE7FEE7FEE7FEE704480549054A064B31
:1002000070470000292C000831010008880B0020ED
:1002100088110020880D0020880D00207047000004
:100220000FB4044910B503AA029800F0A1F910BC5C
:100230005DF814FB080000202DE9F0410E4604464D
:10024000002020622046E168884730B3252805D089
:10025000D4E901219047206A401CF2E7E16820467A
:1002600000278847050018D0A5F14100192802D8B9
:1002700020354FF400673246294620462760FFF7B5
:1002800091FF40B1012804D0F61D26F0070608367C
:10029000D8E7361DD6E72846DAE7206ABDE8F081C0
:1002A00070B50C460546012A05D02878800600D591
:1002B000EA69002302E0012305E05B1C934202D2BD
:1002C000E05C0028F9D1A869E618C01AA861286A7C
:1002D000184428622846AFF3008004E0D5E90121E4
:1002E00014F8010B9047B442F8D32846AFF30080CE
:1002F00070BD00002DE9F041064600241068752904
:10030000314616A510D0AFF30080002802DA404233
:1003100013A507E031688A0701D512A502E0490755
:1003200004D511A5012401E0AFF3008000210A22C9
:1003300006F1240709E0B0FBF2FCB0FBF2F302FB8C
:100340001C00303078541846491C0028F3D123464D
:100350002A463046BDE8F04100F09AB8000000009F
:100360002D0000002B00000020000000032A40F2B6
:10037000308010F0030C00F0158011F8013BBCF147
:10038000020F624498BF11F801CB00F8013B38BF5F
:1003900011F8013BA2F1040298BF00F801CB38BF6D
:1003A00000F8013B11F0030300F0F480083AC0F0BC
:1003B000088051F8043B083A51F804CBA0E8081033
:1003C000F5E7121D5CBF51F8043B40F8043BAFF366
:1003D0000080D20724BF11F8013B11F801CB48BFC0
:1003E00011F8012B24BF00F8013B00F801CB48BFF6
:1003F00000F8012B70474FF000020429C0F0128072
:1004000010F0030C00F01B80CCF1040CBCF1020FC7
:1004100018BF00F8012BA8BF20F8022BA1EB0C019C
:1004200000F00DB85FEAC17C24BF00F8012B00F892
:10043000012B48BF00F8012B70474FF0000200B5B8
:10044000134694469646203922BFA0E80C50A0E8F7
:100450000C50B1F12001BFF4F7AF090728BFA0E8A5
:100460000C5048BF0CC05DF804EB890028BF40F871
:10047000042B08BF704748BF20F8022B11F0804FB3
:1004800018BF00F8012B70477047704770477047DE
:100490002DE9F0470D4699469246044600F124089E
:1004A0000168880604D5E06921F01001216000E0B0
:1004B0000120A84201DD471B00E00027A1697A194D
:1004C00002EB0900081AA0612078C00602D4204679
:1004D000AFF30080002608E0D4E901211AF80600F5
:1004E0009047206A401C761C20624E45F4DB207841
:1004F000C0060AD52046AFF3008006E0D4E901210A
:1005000030209047206A401C2062381EA7F1010766
:10051000F4DC07E0D4E9012118F805009047206ACF
:10052000401C2062281EA5F10105F3DC2046AFF334
:1005300000802078000602D50220BDE8F087012067
:10054000FBE710B5436913B1AFF3008001E0FFF79B
:10055000A7FE012010BD127800F124010A700022CC
:100560004A700122EDE711684FF0FF32E9E7000021
:10057000074B70B50D467B4400F047F8044628460B
:1005800000F056F810B14FF0FF3070BD204670BD3E
:100590005B2D000010B5203AC0F00B80B1E8185078
:1005A000203AA0E81850B1E81850A0E81850BFF45D
:1005B000F5AF5FEA027C24BFB1E81850A0E81850FC
:1005C00044BF18C918C0BDE810405FEA827C24BF50
:1005D00051F8043B40F8043B08BF7047D20728BFDE
:1005E00031F8023B48BF11F8012B28BF20F8023B2D
:1005F00048BF00F8012B704700487047240B0020CB
:1006000001694A1C02610878704700B58FB0CDE9D6
:1006100001310021059105497944CDE903101146C6
:100620006846FFF709FE0FB000BD0000E5FFFFFFC1
:10063000007B00F0800070477546FFF7DDFFAE4697
:1006400005006946534620F00700854618B020B5DE
:10065000FFF7D2FDBDE820404FF000064FF0000745
:100660004FF000084FF0000B21F00701AC46ACE85A
:10067000C009ACE8C009ACE8C009ACE8C0098D46C7
:10068000704710B50446AFF300802046BDE8104027
:10069000FFF79DBD00BFFEE70121024A1170024A2B
:1006A000117070471A0000201B00002000B585B0B3
:1006B0000020019002900390049000BF11488069CF
:1006C00040F480700F4988610846806900F48070AA
:1006D000009000BF00BF0C4802900220039003204E
:1006E00004904FF40040019001A9084800F0CCF9B3
:1006F00000220121282000F0D2FB282000F0BFFBBF
:1007000005B000BD001002400000111000100140B3
:1007100010B53E480078012877D172B600203B49D9
:10072000087062B63A48007800F0010028B1002154
:10073000084603F0E9FA02F00BF93548007800F0BA
:100740000200022825D10021084603F0DDFA3149D4
:10075000002003F083F82F48037841782E4A0020C8
:1007600003F030F92D49002003F050F82B4890F9A0
:1007700000002A4C94F901400219284890F90130F0
:1007800024480178244802F0C1F8FF212248FFF7ED
:1007900032FE1F48007800F04000402805D10021BB
:1007A000084603F0B1FA02F005F91948007800F0A4
:1007B0008000802809D10021084603F0A5FA1448DA
:1007C0000088C0F30020FFF767FF1148008800F49D
:1007D0000070B0F5007F10D10021084603F094FAB4
:1007E00002F0B4FF042802D102F052FB05E002F04F
:1007F000ADFF052801D102F0E7F80548007800F0C8
:100800002000202801D102F0DFF810BD1C000020DC
:10081000220000201D0000204C0200201F000020AC
:1008200010B5C0B00E48006802F074FFB0B90D48B2
:100830000078012812D10C48007801280ED101025D
:100840006846FFF7FAFD69460548006802F056FE63
:10085000C4B22146684601F0A9FF00BF40B010BDF8
:10086000280000201B0000201A000020704710B54F
:100870004FF4004000F0FAF810BD000004E08722B9
:10088000024903A0FFF7CCFCF9E70000D83E0008BE
:1008900025732C2025640A0070B50446002594F8C1
:1008A0002100022803D00420A0630125C1E02068B4
:1008B000006820F00E00216808602068006820F0C1
:1008C0000100216808605C492068884252D95A4971
:1008D00078392068884201D1012047E056496439BF
:1008E0002068884201D1102040E0534950392068E7
:1008F000884201D1801539E04F493C39206888424F
:1009000001D1801432E04C4928392068884202D154
:100910004FF480302AE0484914392068884202D1D7
:100920004FF4801022E044492068884201D14004FD
:100930001CE042492068884201D1012016E03F496D
:1009400014312068884201D110200FE03B49283142
:100950002068884201D1801508E038493C31206880
:10096000884201D1801401E04FF480303349091FDF
:10097000086051E0304978392068884201D101206F
:1009800047E02D4964392068884201D1102040E0B9
:10099000294950392068884201D1801539E026491B
:1009A0003C392068884201D1801432E0224928393C
:1009B0002068884202D14FF480302AE01E49143961
:1009C0002068884202D14FF4801022E01A49206842
:1009D000884201D140041CE018492068884201D1B6
:1009E000012016E0154914312068884201D11020F9
:1009F0000FE0124928312068884201D1801508E0B3
:100A00000E493C312068884201D1801401E04FF446
:100A10008030094980394860012084F8210000BFF6
:100A2000002084F8200000BF606B10B12046616B8D
:100A30008847284670BD000080000240080402403C
:100A400010B50446B4F5004F0BD1012005490870DC
:100A50000549002002F0BCFE44F2FF31002002F004
:100A600081FE10BD1C0000202200002010B50446AD
:100A700004480068204020B1024804602046FFF787
:100A8000DFFF10BD140401402DE9F84702460023A2
:100A90009C467BE14FF0010808FA03F4D1F800808E
:100AA00008EA0400A0427DD1DFF8F4A2D1F8048066
:100AB000A8EB0A09D0453AD014DCB8F1030F50D0A6
:100AC00009DCB8F1000F31D0B8F1010F1CD0B8F13A
:100AD000020F49D120E0B8F1110F18D0B8F1120F70
:100AE00042D11EE0B9F5881F25D006DCB9F5803F5C
:100AF00020D0B9F5801F37D11AE0B9F5001F18D002
:100B0000B9F5041F30D117E0D1F80CC02DE0D1F8B1
:100B10000C8008F1040C28E0D1F80C8008F1080CD6
:100B200023E0D1F80C8008F10C0C1EE000BF00BFE0
:100B300000BF00BF00BF00BFD1F80880B8F1000FB0
:100B400002D14FF0040C0BE0D1F80880B8F1010F8E
:100B500003D14FF0080C146102E04FF0080C54610F
:100B600003E04FF0000C00E000BF00BFFF2801D8F9
:100B7000904601E002F104084646FF2802D84FEAF9
:100B8000830803E0A3F108084FEA88084746D6F82F
:100B900000804FF00F0909FA07F928EA09080CFA52
:100BA00007F900E07AE048EA0908C6F80080D1F8C1
:100BB000048008F08058B8F1805F6FD100BFDFF883
:100BC000E481D8F8188048F00108DFF8D891C9F816
:100BD0001880C846D8F8188008F00108CDF80080C1
:100BE00000BF00BF4FEAB9384FEA930958F82950BF
:100BF0004FEA83784FEA18794FF00F0808FA09F89E
:100C000025EA0805DFF8A081424502D14FF000082F
:100C100024E0DFF89881424502D14FF001081DE041
:100C2000DFF88C81424502D14FF0020816E0DFF870
:100C30008481424502D14FF003080FE0DFF878814C
:100C4000424502D14FF0040808E0DFF870814245C8
:100C500002D14FF0050801E04FF006084FEA837912
:100C60004FEA197908FA09F848EA0505DFF85081D2
:100C70004FEA930948F82950D1F8048008F48038E5
:100C8000B8F5803F0BD1DFF83C81D8F8008048EA06
:100C90000008DFF83091C9F800800AE075E0DFF85D
:100CA0002481D8F8008028EA0008DFF81891C9F8F4
:100CB0000080D1F8048008F40038B8F5003F0ED168
:100CC000DFF8008108F10408D8F8008048EA00083D
:100CD000DFF8F09009F10409C9F800800DE0DFF8B1
:100CE000E48008F10408D8F8008028EA0008DFF85A
:100CF000D49009F10409C9F80080D1F8048008F4FF
:100D00008018B8F5801F0ED1DFF8B88008F1080808
:100D1000D8F8008048EA0008DFF8A89009F108092F
:100D2000C9F800800DE0DFF89C8008F10808D8F8C9
:100D3000008028EA0008DFF88C9009F10809C9F85A
:100D40000080D1F8048008F40018B8F5001F0ED117
:100D5000DFF8708008F10C08D8F8008048EA000835
:100D6000DFF8609009F10C09C9F800800DE0DFF8A8
:100D7000548008F10C08D8F8008028EA0008DFF851
:100D8000449009F10C09C9F800805B1CD1F800807F
:100D900028FA03F8B8F1000F7FF47CAEBDE8F887BD
:100DA000000011100010024000080140000C01403A
:100DB000001001400014014000180140001C0140D7
:100DC0000800014000040140024693680B400BB14B
:100DD000012000E0002070470AB1016101E00B042E
:100DE0000361704701480068704700001000002050
:100DF00003480068034909780844014908607047BE
:100E0000100000201800002010B50848006840F0CD
:100E1000100006490860032000F080F80F2000F061
:100E200007F800F02BF8002010BD00000020024061
:100E300070B504460E4800784FF47A71B1FBF0F0BB
:100E40000C490968B1FBF0F5284601F03CF808B1FF
:100E5000012070BD102C07D200222146501E00F048
:100E60001EF80548046001E00120F2E70020F0E7E9
:100E700018000020040000201400002070470146E4
:100E80000846002809DB00F01F0301229A404309AD
:100E90009B0003F1E023C3F8002100BF70472DE958
:100EA000F05F80460D461646002702F0F5F907462A
:100EB00039462A46334601F00700C0F1070ABAF165
:100EC000040F02D94FF0040A01E0C0F1070AD1462D
:100ED00000F1040ABAF1070F02D24FF0000A01E054
:100EE000A0F1030AD4464FF0010A0AFA09FAAAF15E
:100EF000010A0AEA020A0AFA0CFA4FF0010B0BFA8D
:100F00000CFBABF1010B0BEA030B4AEA0B04214685
:100F1000404602F0C9F9BDE8F09F000000BF00F0B4
:100F20000702064B19684FF6FF031940044B0B43A9
:100F300043EA0221014B196000BF70470CED00E04D
:100F40000000FA0570B504460D460CB9012070BDCD
:100F50005A48006800F00700A8420ED257480068BF
:100F600020F007002843554908600846006800F053
:100F70000700A84201D00120E9E7207800F0020034
:100F800002281DD1207800F00400042805D14C4827
:100F9000406840F4E0604A494860207800F008006A
:100FA000082805D14648406840F4605044494860EC
:100FB0004348406820F0F000A16808434049486079
:100FC000207800F0010078B36068012806D13C4821
:100FD000006800F4003090B90120B8E7606802288A
:100FE00006D13748006800F0007040B90120AEE734
:100FF0003348006800F0020008B90120A7E7304834
:10100000406820F00300616808432D494860FFF7FD
:10101000E9FE064609E0FFF7E5FE801B41F2883154
:10102000884202D9032092E707E02548406800F093
:101030000C006168B0EB810FEDD12048006800F032
:101040000700A8420ED91D48006820F00700284379
:101050001A4908600846006800F00700A84201D05D
:10106000012074E7207800F00400042807D1144818
:10107000406820F4E060E168084311494860207846
:1010800000F00800082808D10D48406820F460509E
:10109000216940EAC1000A49486000F03FF8084968
:1010A0004968C1F30311074A515CC840064908600A
:1010B00006480068FFF7BCFE002048E70020024019
:1010C00000100240E63E000804000020140000204A
:1010D00001480068704700000400002000B5FFF7D9
:1010E000F7FF04494968C1F30221034A515CC84033
:1010F00000BD000000100240F63E000800B5FFF7FA
:10110000E7FF04494968C1F3C221034A515CC84062
:1011100000BD000000100240F63E0008F0B585B0AA
:101120000FF26C0C9CE8E01001A8A0E8E0101CA5F0
:101130002D68009500210022002300240020194D75
:10114000696801F00C05F5B1042D02D0082D19D104
:1011500001E0154819E001ADC1F38346AC5D01F42F
:10116000803555B10F4D6D68C5F340451DF805201C
:101170000D4D6543B5FBF2F302E00C4D04FB05F3A6
:10118000184602E000BF084800BF00BF05B0F0BD30
:1011900002030405060708090A0B0C0D0E0F1010B8
:1011A000010200000010024000127A0000093D0018
:1011B000F8B504460CB90120F8BD207800F0010014
:1011C000002878D0F848406800F00C0004280CD0C3
:1011D000F548406800F00C00082811D1F24840683A
:1011E00000F48030B0F5803F0AD1EF48006800F489
:1011F000003000285FD0606800285CD10120DBE768
:1012000000BF6068B0F5803F06D1E748006840F451
:101210008030E549086028E0606858B9E248006815
:1012200020F48030E04908600846006820F48020FF
:1012300008601AE06068B0F5A02F0BD1DA480068AA
:1012400040F48020D84908600846006840F48030A7
:1012500008600AE0D448006820F48030D249086071
:101260000846006820F48020086000BF606888B1EC
:10127000FFF7B8FD054606E0FFF7B4FD401B642804
:1012800001D9032098E7C848006800F4003000281E
:10129000F2D010E0FFF7A6FD054606E0FFF7A2FD3D
:1012A000401B642801D9032086E7BF48006800F48A
:1012B00000300028F2D1207800F00200022857D137
:1012C000B948406800F00C0050B1B748406800F0E1
:1012D0000C00082818D1B448406800F4803098B950
:1012E000B148006800F0020020B12069012801D057
:1012F000012061E7AC48006820F0F800616940EA2D
:10130000C100A949086033E02069E8B10120A7497C
:101310000860FFF767FD054606E0FFF763FD401B29
:10132000022801D9032047E79F48006800F0020027
:101330000028F2D09C48006820F0F800616940EA7B
:10134000C1009949086013E0002098490860FFF740
:1013500049FD054606E0FFF745FD401B022801D97F
:10136000032029E79048006800F002000028F2D12D
:10137000207800F0080008282DD1A069B8B101201C
:101380008B490860FFF72EFD054606E0FFF72AFDB2
:10139000401B022801D903200EE78348406A00F071
:1013A00002000028F2D0012001F0E2FA13E0002050
:1013B0007F490860FFF716FD054606E0FFF712FDBE
:1013C000401B022801D90320F6E67748406A00F066
:1013D00002000028F2D1207800F00400042873D124
:1013E00000277148C06900F0805070B900BF6E4896
:1013F000C06940F080506C49C8610846C06900F07F
:101400008050009000BF00BF01276A48006800F4C8
:101410008070B0B96748006840F480706549086022
:10142000FFF7E0FC054606E0FFF7DCFC401B642804
:1014300001D90320C0E65F48006800F480700028EE
:10144000F2D000BFE068012806D15748006A40F09A
:1014500001005549086227E0E06858B95248006A1F
:1014600020F00100504908620846006A20F004009C
:10147000086219E0E06805280BD14B48006A40F08B
:101480000400494908620846006A40F00100086209
:101490000AE04548006A20F0010043490862084616
:1014A000006A20F00400086200BFE068A0B1FFF706
:1014B00099FC054609E0FFF795FC401B41F2883195
:1014C000884202D9032077E622E03748006A00F01C
:1014D00002000028EFD012E0FFF784FC054608E088
:1014E000FFF780FC401B41F28831884201D903207C
:1014F00062E62D48006A00F002000028F0D1012FBA
:1015000005D12948C06920F080502749C86100BF33
:10151000E069C8B32448406800F00C00082860D097
:10152000E069022848D1002020490866FFF75AFCEC
:10153000054606E0FFF756FC401B022801D90320B0
:101540003AE61948006800F000700028F2D1206ADD
:10155000B0F5803F07D11448406820F40030A168FE
:10156000084311494860D4E9080108430E49496815
:1015700021F4741108430C49486001200B490866A6
:10158000FFF730FC054607E03DE0FFF72BFC401B72
:10159000022801D903200FE60348006800F000701C
:1015A0000028F2D02FE0000000100240000042426C
:1015B0008004424200700040002014490866FFF792
:1015C00011FC054606E0FFF70DFC401B022801D97F
:1015D0000320F1E50E48006800F000700028F2D109
:1015E00011E0E069012800D1E6E50948466806F403
:1015F0008031206A814204D106F47011606A814210
:1016000001D00120D8E50020D6E5000000004242CC
:101610000010024010B504460CB9012010BD606AEC
:1016200000B900BFA06AB0F5005F00D100BF94F818
:10163000510028B9002084F85000204600F038F806
:10164000022084F851002068006820F040002168E2
:101650000860D4E901010843E168084321690843AF
:1016600061690843218B01F400710843E169084373
:10167000216A0843A16A0843216808600421A0691F
:1016800001EA104021684860A06AB0F5005F02D10D
:101690002168E06A08612068C06920F40060216860
:1016A000C86100206065012084F851000020B5E782
:1016B00010B586B004463C492068884271D100BF0D
:1016C0003A48806940F004003849886108468069DA
:1016D00000F00400019000BF00BF00BF0846806911
:1016E00040F0040088610846806900F00400019021
:1016F00000BF00BF00BF0846806940F00400886159
:101700000846806900F00400019000BF00BF00BFE0
:101710000846806940F0040088610846806900F04E
:101720000400019000BF00BF00BF0846806940F47C
:10173000805088610846806900F48050019000BFA5
:1017400000BF10200290012003900320059002A901
:101750001748FFF799F9012210211548FFF73CFBC4
:101760000A2002F09DFB202002900220039003201B
:10177000059002A90E48FFF787F940200290022049
:1017800003900320059002A90948FFF77DF9802006
:101790000290022003900320059002A90448FFF75D
:1017A00073F906B010BD0000003001400010024087
:1017B000000801402DE9F8430446884617461D46B7
:1017C0004FF000096068B0F5827F0DD1A06858B96C
:1017D000042084F851003B4642464146204600958D
:1017E00000F0FAF9BDE8F88300BF94F85000012832
:1017F00001D10220F6E7012084F8500000BFFFF776
:10180000F1FA064694F85100012802D04FF002097F
:10181000EBE0B8F1000F00D017B94FF00109E4E098
:10182000042084F8510000206065C4F83880A78740
:10183000E7872063A086E08620646064A06AB0F534
:10184000005F10D100BF2068006820F400502168BC
:1018500008602068006840F400502168086000BFFC
:10186000E08F401EE087A068B0F5004F05D12068EA
:10187000006820F48040216808602068006800F05B
:101880004000402805D02068006840F040002168F2
:101890000860E068F8B91AE02068806800F001008C
:1018A00050B12068007BA16B0870A06B401CA06346
:1018B000E08F401EE0870AE0FFF794FA801BA84201
:1018C00001D3681C00B915B94FF003098DE0E08F12
:1018D0000028E1D11EE01AE02068806800F00100D5
:1018E00050B12068C068A16B0880A06B801CA06309
:1018F000E08F401EE0870AE0FFF774FA801BA842E1
:1019000001D3681C00B915B94FF003096DE0E08FF1
:101910000028E1D1A06AB0F5005F39D120680068E5
:1019200040F48050216808602068006800F480500E
:1019300028B12068006820F48050216808602B4698
:10194000012211462046009601F0D6F810B14FF062
:1019500003094AE0E068B0F5006F04D12068C06870
:10196000A16B088003E02068007BA16B08702B4608
:10197000012211462046009601F0BEF830B1606D9C
:1019800040F0020060654FF003092EE02068C06857
:1019900032462946204601F025F808B1202060652E
:1019A00020688068C0F30010D0B1204601F06AF8CA
:1019B000012811D1606D40F00200606500BF206811
:1019C000006820F40050216808602068006840F436
:1019D00000502168086003E04FF6EF7021688860CE
:1019E000606D08B14FF0010900BF012084F851007B
:1019F00000BF002084F8500000BF4846F2E62DE901
:101A0000F84F0446884616461D464FF0000A00BFB0
:101A100094F85000012802D10220BDE8F88F01207F
:101A200084F8500000BFFFF7DDF90746B14694F88F
:101A30005100012802D04FF0020AC3E0B8F1000FB4
:101A400000D016B94FF0010ABCE0032084F8510021
:101A500000206065C4F83080A686E686A063A08773
:101A6000E08760642064A068B0F5004F05D120686D
:101A7000006840F4804021680860A06AB0F5005F0B
:101A80000DD100BF2068006820F400502168086074
:101A90002068006840F400502168086000BF20689A
:101AA000006800F04000402805D02068006840F041
:101AB000400021680860E068B0F5006F2FD16068D1
:101AC00010B1B9F1010F09D1206B00882168C860FD
:101AD000206B801C2063E08E401EE0861BE02068A7
:101AE000806800F0020002280AD1206B008821687B
:101AF000C860206B801C2063E08E401EE0860AE0F8
:101B0000FFF770F9C01BA84201D3681C00B915B9D2
:101B10004FF0030A56E0E08E0028E0D12EE0606826
:101B200010B1B9F1010F09D1206B00782168087359
:101B3000206B401C2063E08E401EE0861BE0206886
:101B4000806800F0020002280AD1206B007821682A
:101B50000873206B401C2063E08E401EE0860AE084
:101B6000FFF740F9C01BA84201D3681C00B915B9A2
:101B70004FF0030A26E0E08E0028E0D1A06AB0F51D
:101B8000005F05D12068006840F48050216808603B
:101B90003A462946204600F061FF08B120206065E2
:101BA000A06850B900BF002000902068C068009075
:101BB00020688068009000BF00BF606D08B14FF0E2
:101BC000010A00BF012084F8510000BF002084F802
:101BD000500000BF504620E72DE9FF5F04468846CD
:101BE00091461D460E9E012002900020019000BFEC
:101BF00094F85000012803D1022004B0BDE8F09F02
:101C0000012084F8500000BFFFF7ECF8074694F875
:101C100051B060680390AA46BBF1010F0BD0039846
:101C2000B0F5827F04D1A06810B9BBF1040F02D0D7
:101C3000022001903DE1B8F1000F03D0B9F1000F8F
:101C400000D015B90120019033E194F85100042827
:101C500002D0052084F8510000206065C4F8389057
:101C6000E587A587C4F83080E586A5862064606492
:101C7000A06AB0F5005F0DD100BF2068006820F4B5
:101C80000050216808602068006840F40050216816
:101C9000086000BF2068006800F04000402805D0C0
:101CA0002068006840F0400021680860E068B0F5F6
:101CB000006F56D1606810B1BAF1010F09D1206BE5
:101CC00000882168C860206B801C2063E08E401E65
:101CD000E0863FE02068806800F0020002281CD106
:101CE000E08ED0B10298012817D1206B00882168BE
:101CF000C860206B801C2063E08E401EE0860020C0
:101D00000290E08E48B9A06AB0F5005F05D1206866
:101D1000006840F48050216808602068806800F006
:101D2000010068B1E08F58B12068C068A16B0880DD
:101D3000A06B801CA063E08F401EE0870120029012
:101D4000FFF750F8C01BB04204D3701C10B1032041
:101D50000190AEE0E08E0028BCD1E08F0028B9D120
:101D600056E0606810B1BAF1010F09D1206B00781C
:101D700021680873206B401C2063E08E401EE086C3
:101D800040E02068806800F0020002281CD1E08E4C
:101D9000D0B10298012817D1206B00782168087310
:101DA000206B401C2063E08E401EE08600200290E5
:101DB000E08E48B9A06AB0F5005F05D120680068E0
:101DC00040F48050216808602068806800F00100BD
:101DD00068B1E08F58B12068C068A16B0870A06B33
:101DE000401CA063E08F401EE08701200290FEF7B8
:101DF000F9FFC01BB04201D3701C00B916B9032013
:101E0000019056E0E08E0028BBD1E08F0028B8D1C9
:101E1000A06AB0F5005F10D133460122114620467A
:101E2000009700F069FE30B1606D40F0020060651F
:101E3000032001903DE02068C06820688068C0F3FE
:101E40000010E8B1204600F01DFE012814D1606D9D
:101E500040F00200606500BF2068006820F4005078
:101E6000216808602068006840F40050216808601C
:101E700000BF0120019003E04FF6EF7021688860F9
:101E80003A463146204600F0E9FD20B1012001909C
:101E9000202060650DE0A06850B900BF00200090D0
:101EA0002068C068009020688068009000BF00BF74
:101EB00000BF012084F8510000BF002084F85000CA
:101EC00000BF019899E670B504462546681EB0F13A
:101ED000807F01D301200FE0681E4FF0E0214861B0
:101EE0000F214FF0FF3001F0DFF900204FF0E0212B
:101EF000886107200861002070BD7047704710B5E9
:101F0000024600BF92F83C00012801D1022010BD1A
:101F1000012082F83C0000BF022082F83D001068DA
:101F200043681068846823F070030868034324F052
:101F3000800448680443106843601068846001208E
:101F400082F83D0000BF002082F83C0000BF00BFC7
:101F5000DDE710B504460CB9012010BD94F83D0032
:101F600028B9002084F83C00204600F00DF802203B
:101F700084F83D00211D206800F0C0FE012084F897
:101F80003D000020E9E7000038B504462068B0F1C4
:101F9000804F0DD100BF1448C06940F001001249C4
:101FA000C8610846C06900F00100009000BF00BF92
:101FB0000E492068884215D100BF0B48C06940F027
:101FC00002000949C8610846C06900F0020000909B
:101FD00000BF00BF012202211D20FEF760FF1D206F
:101FE000FEF74DFF38BD0000001002400004004025
:101FF0000146022081F83D000868806800F0070271
:10200000062A05D00868006840F001000B681860D7
:10201000012081F83D000020704701460868C06833
:1020200040F001000B68D8600868806800F0070283
:10203000062A05D00868006840F001000B681860A7
:10204000002070470146022081F83D0000BF08686B
:10205000006A41F21112104050B90868006A9210EB
:10206000104028B90868006820F001000A68106074
:1020700000BF012081F83D0000207047014608683C
:10208000C06820F001000A68D06000BF0868006ADC
:1020900041F21112104050B90868006A92101040C5
:1020A00028B90868006820F001000A68106000BFC5
:1020B000002070472DE9F04104460D4600BF94F81A
:1020C0003C00012802D10220BDE8F081012084F803
:1020D0003C0000BF022084F83D002068866826F09E
:1020E000770626F47F46206886602868502833D01B
:1020F0000CDC202850D004DC00284BD0102851D113
:1021000049E0302849D040284CD139E060282DD012
:10211000702807D0B0F5805F03D0B0F5005F41D1E3
:102120000DE040E0D5E902136A68206800F034FE53
:102130002068866846F077062068866033E0D5E937
:1021400002136A68206800F027FE2068806840F467
:1021500080402168886026E0EA686968206800F0AD
:102160002FFE5021206800F022FE1CE0EA6869681A
:10217000206800F038FE6021206800F018FE12E0B0
:10218000EA686968206800F01BFE4021206800F0C2
:102190000EFE08E000BF00BF00BF2968206800F005
:1021A00006FE00E000BF00BF012084F83D0000BF34
:1021B000002084F83C0000BF00BF85E7704710B5E1
:1021C000044620680069C0F34000D8B12068C068A8
:1021D000C0F34000B0B16FF0020021680861012037
:1021E00020772068806900F0030018B12046FFF7CF
:1021F000E5FF05E0204600F0ADF8204600F0ABF822
:102200000020207720680069C0F38000D8B12068E2
:10221000C068C0F38000B0B16FF0040021680861AD
:10222000022020772068806900F4407018B12046B1
:10223000FFF7C4FF05E0204600F08CF8204600F0D0
:102240008AF80020207720680069C0F3C000D8B168
:102250002068C068C0F3C000B0B16FF0080021680A
:102260000861042020772068C06900F0030018B1DD
:102270002046FFF7A3FF05E0204600F06BF820465C
:1022800000F069F80020207720680069C0F3001092
:10229000D8B12068C068C0F30010B0B16FF0100072
:1022A00021680861082020772068C06900F4407028
:1022B00018B12046FFF782FF05E0204600F04AF8FB
:1022C000204600F048F8002020772068006900F0E0
:1022D000010058B12068C06800F0010030B16FF013
:1022E000010021680861204600F036F82068006986
:1022F000C0F3C01058B12068C068C0F3C01030B13E
:102300006FF08000216808612046FFF7F6FD206825
:102310000069C0F3801058B12068C068C0F3801015
:1023200030B16FF0400021680861204600F036F8B7
:1023300020680069C0F3401058B12068C068C0F33D
:10234000401030B16FF02000216808612046FFF78F
:10235000D5FD10BD7047704710B504460B49206885
:10236000884210D10A48007868B1094802780949C2
:102370000948006801F068F9FF210648FEF73BF8BC
:1023800000200349087000F05DFF10BD000400400C
:102390000000002034000020280000207047704713
:1023A0002DE9F0470446206805682068C668206863
:1023B00047694FF00008C14605F00F08B8F1000F5B
:1023C0000AD105F0200038B106F0200020B12046E7
:1023D00000F096FDBDE8F087B8F1000F6DD007F072
:1023E000010018B906F49070002866D005F00100CD
:1023F00030B106F4807018B1E06B40F00100E0638A
:1024000005F0040030B107F0010018B1E06B40F0B6
:102410000200E06305F0020030B107F0010018B1DE
:10242000E06B40F00400E06305F0080030B107F015
:10243000010018B1E06B40F00800E063E06B68B3A6
:1024400005F0200028B106F0200010B1204600F071
:1024500057FD20684069C0F38019E06B00F0080068
:1024600010B9B9F1000F22D0204600F029FD2068F4
:10247000406900F04000B0B12068406920F04000A1
:1024800021684861606B50B11748616B4863606BAD
:10249000FEF702FA10B1606B416B88470CE02046F2
:1024A000FFF77DFF08E02046FFF779FF04E02046B4
:1024B000FFF775FF0020E0638CE705F0800030B186
:1024C00006F0800018B1204600F03EFE82E705F0DD
:1024D000400030B106F0400018B1204600F000FD89
:1024E00078E700BF76E70000AD2E000810B504467F
:1024F0000CB9012010BDA06900B100E000BF94F844
:10250000390028B9002084F83800204600F028F867
:10251000242084F839002068C06820F40050216825
:10252000C860204600F040FD2068006920F490401B
:10253000216808612068406920F02A00216848610C
:102540002068C06840F400502168C8600020E06343
:10255000202084F8390084F83A000020CAE70000FF
:1025600010B586B0044600200290039004900590B8
:102570001E492068884237D100BF1D48806940F459
:1025800080401B4988610846806900F480400190C2
:1025900000BF00BF00BF0846806940F004008861AA
:1025A0000846806900F00400019000BF00BF481594
:1025B000029002200390012004900320059002A9BC
:1025C0000C48FEF761FA4FF48060029000200390FF
:1025D00002A90848FEF758FA012200212520FEF73B
:1025E0005EFC2520FEF74BFC06B010BD0038014014
:1025F000001002400008014010B5034693F83A006D
:1026000020282FD101B10AB9012010BD00BF93F8D5
:102610003800012801D10220F7E7012083F83800B3
:1026200000BF99629A85DA850020D863222083F85A
:102630003A0000BF002083F8380000BF1868C06867
:1026400040F480701C68E0601868406940F0010048
:102650001C6860611868C06840F020001C68E06079
:102660000020D2E70220D0E710B5044672B600F091
:10267000E9FD12480178124802780078401C104B9E
:1026800018701048815418460078FF280DD118465C
:1026900002780C490C48006800F0D6FFFF21094879
:1026A000FDF7A9FE00200649087000F0BFFD0122D9
:1026B00002490648FFF7A0FF62B610BD01000020E6
:1026C00000000020340000202800002034010020F9
:1026D0002DE9F84304460D4616461F464FF0000903
:1026E00094F8390020285CD105B116B90120BDE865
:1026F000F88300BF94F83800012801D10220F6E7E2
:10270000012084F8380000BF0020E063212084F815
:102710003900FEF767FB8146A684E6842BE0E08C57
:10272000401EE084A068B0F5805F16D14B460022C1
:1027300080212046009700F03BFD08B10320D6E73A
:10274000A846B8F80000C0F3080021684860206976
:1027500008B9AD1C0FE06D1C0DE04B460022802136
:102760002046009700F024FD08B10320BFE715F8CC
:10277000010B21684860E08C0028D0D14B46002234
:1027800040212046009700F013FD08B10320AEE77A
:10279000202084F8390000BF002084F8380000BFF2
:1027A000A5E70220A3E7704700BFFEE770B5054626
:1027B0000C4600F05FFB204600F0B5FF23462A469A
:1027C0000021084601F03CFB41F27071002001F04D
:1027D000BFFA00200349087003490870042000F084
:1027E000BBFF70BD1B0000201A00002000B585B0A3
:1027F000002038490870012037490870002001F096
:1028000011F9002001F016FB0021084601F07CFAC6
:102810000121002001F078FA0121002001F008FADE
:1028200000221146104601F003F90121002001F0B9
:10283000EBF92F220421002001F07AFA04208DF810
:10284000110009208DF8100002208DF812000020E0
:102850008DF8130004A901F037F900208DF80C0061
:102860008DF80D00FF208DF80B0000208DF80A0078
:102870000820ADF8080002A9002001F051F9042059
:102880008DF8040007208DF8050000208DF8060063
:1028900001208DF8070001A9002001F095F9002022
:1028A000034603221146009001F0D8F844F2FF31AC
:1028B000002000F057FF07221621002001F05AFAED
:1028C0000649002001F0C8F9002000F009F805B021
:1028D00000BD00001A0000201B000020C0CA89367D
:1028E00010B504460120064908702146002001F079
:1028F000DFF9052000F030FF00F04EF810BD0000B9
:102900001A00002000BFFEE7704700002DE9F041EB
:1029100004460D4616461F4601200949087009491C
:10292000087009480078401C07490870214607A034
:10293000FDF776FC0020FFF7D3FFBDE8F081000033
:102940001B0000201A000020250000202573000035
:1029500010B5012003490870034908700020FFF7F3
:10296000BFFF10BD1B0000201A00002070470000B0
:1029700008B508490968C9084FF47A72B1FBF2F149
:102980004143009100BF00BF00994A1E00920029F8
:10299000F9D108BD0400002010B50122022104482D
:1029A000FEF71AFA002201210148FEF715FA10BDC0
:1029B0000008014001200249087002490870704770
:1029C0001B0000201A00002010B5012003490870E8
:1029D000034908700020FFF783FF10BD1B00002093
:1029E0001A000020F8B504460E4615466068B0F59A
:1029F000827F0DD1A068B0F5004F03D0A068B0F57C
:102A0000806F05D12068006820F0400021680860D0
:102A10006068B0F5827F11D1A068B0F5806F0DD1EC
:102A20003346002201212046009500F065F898B158
:102A3000606D40F0200060650320F8BD3346002241
:102A400080212046009500F057F828B1606D40F0D5
:102A5000200060650320F0E70020EEE7F8B50446AB
:102A60000D4616462B46002280212046009600F097
:102A700043F828B1606D40F0200060650320F8BD88
:102A80000020FCE7014601207047000010B5124805
:102A9000124908604FF48270486000210F4881603D
:102AA000C160016141614FF4007181610821C16120
:102AB00000210162416281620721C162FEF7AAFD25
:102AC00008B1FDF7DBFE05480068006840F04000F3
:102AD00002490968086010BD0030014074010020FF
:102AE00070B504460D4614232A4621460148FEF7D8
:102AF00061FE70BD740100202DE9F04104460E46D0
:102B000017461D46DDF818803EE0681CD8B3FEF776
:102B100069F9A0EB0800A84200D2A5BB2068406874
:102B200020F0E000216848606068B0F5827F0DD138
:102B3000A068B0F5004F03D0A068B0F5806F05D154
:102B40002068006820F0400021680860A06AB0F5A5
:102B5000005F0DD100BF2068006820F4005021689C
:102B600008602068006840F400502168086000BFD9
:102B7000012084F8510000BF002084F8500000BFFD
:102B80000320BDE8F081FFE7206880683040B04254
:102B900001D1012000E00020B842B6D10020F0E7CA
:102BA00070B504460D4614232A4621460148FEF717
:102BB00026FF70BD74010020704710B5FEF718F9AC
:102BC00010BD00B58FB0282105A8FDF736FC1421F3
:102BD0006846FDF732FC01200590000406900020B5
:102BE00007900120099002200C90C1030D914FF431
:102BF000E0110E9105A8FEF7DBFA08B100BFFEE771
:102C00000F20009002200190002002904FF480607D
:102C100003900020049002216846FEF793F908B162
:102C200000BFFEE70FB000BD1148006840F0010092
:102C30000F490860084640680E4908400C49486042
:102C4000084600680C4908400949086008460068C1
:102C500020F4802008600846406820F4FE004860A8
:102C60004FF41F008860C8030449086070470000E3
:102C7000001002400000FFF8FFFFF6FE08ED00E044
:102C800010B50248FFF79BFA10BD00000C020020AF
:102C900000B587B000200390049005900690019045
:102CA00002901448144908604FF4616048600021A4
:102CB000114881606421C160002101618161FFF7D9
:102CC00048F908B1FDF7DAFD4FF48050039003A9ED
:102CD0000948FFF7EFF908B1FDF7D0FD002001909A
:102CE000029001A90448FFF70AF908B1FDF7C6FDF3
:102CF00007B000BD000400400C02002010B50268BF
:102D0000204B98420ED0204B98420BD0B0F1804F10
:102D100008D01E4B984205D01D4B984202D01D4B47
:102D2000984203D122F070024B681A43154B984227
:102D30000ED0154B98420BD0B0F1804F08D0134BFA
:102D4000984205D0124B984202D0124B984203D1C0
:102D500022F44072CB681A4322F080034C6943EAA4
:102D6000040202608B68C3620B688362054B984261
:102D700002D0054B984201D10B69036301234361E3
:102D800010BD0000002C0140003401400004004050
:102D900000080040000C004030B50C46816821F46A
:102DA0007F4142EA032525432943816030BD0A461D
:102DB000816821F0700142F0070319438160704778
:102DC00030B50B461446026A056A25F00105056216
:102DD000816921F0F00141EA041122F00A021A434C
:102DE0008161026230BD30B50B461446056A25F09C
:102DF000100505628169026A21F4704141EA0431DB
:102E000022F0A00242EA03128161026230BD00009A
:102E100000B587B0002003900490059006900190C3
:102E200002904FF08040124908604720486000211E
:102E30000F48C160816001618161FFF78AF808B1C4
:102E4000FDF71CFD4FF48050039003A90848FFF7DD
:102E500031F908B1FDF712FD00200190029001A99F
:102E60000348FFF74CF808B1FDF708FD07B000BDB7
:102E7000CC01002010B5002202210448FDF7ACFF70
:102E8000012211460148FDF7A7FF10BD00080140CF
:102E900010B5012003490870034908700020FFF7AE
:102EA0001FFD10BD1B0000201A00002070B5054654
:102EB0006C6A0020E085E0842046FFF770FA70BD60
:102EC0000168C96821F490710268D160016849699C
:102ED00021F0010102685161202180F83A10704709
:102EE00010B504462068C06820F040002168C86022
:102EF000202084F839002046FFF755FC002010BD43
:102F000070B5044694F83A0022284AD1A068B0F57A
:102F1000805F13D1A56A206940B920684068C0F37A
:102F200008002880A06A801CA06219E02068406820
:102F3000C0B22880A06A401CA06211E0206938B9A4
:102F400020684068C1B2A26A501CA062117007E0FC
:102F50002068406800F07F01A26A501CA0621170D6
:102F6000E08D401E80B2E085C8B92068C06820F0BE
:102F700020002168C8602068C06820F48070216843
:102F8000C8602068406920F0010021684861202065
:102F900084F83A002046FFF767FB002070BD002050
:102FA000FCE70220FAE7000070B5044621680969D1
:102FB00021F44051E2681143226811612269A1683D
:102FC0001143626941EA02052168C96841F20C6255
:102FD000914329432268D1602168496921F44071F5
:102FE000A269114322685161564A2168914254D125
:102FF000FEF784F800EBC00101EB0011626892005B
:10300000B1FBF2F100EBC00202EB001263689B001F
:10301000B2FBF3F26423B2FBF3F202EBC20303EB65
:103020000212A1EB8201322202EB01116422B1FBF8
:10303000F2F101F0F00100EBC00202EB0012636854
:103040009B00B2FBF3F26423B2FBF3F201EB02123A
:1030500000EBC00101EB001163689B00B1FBF3F1D1
:1030600000EBC00303EB00136668B600B3FBF6F396
:103070006426B3FBF6F303EBC30606EB0313A1EBE5
:103080008301322303EB01116423B1FBF3F101F05F
:103090000F0111442268916053E0FEF71FF800EB26
:1030A000C00101EB001162689200B1FBF2F100EB8C
:1030B000C00202EB001263689B00B2FBF3F26423D0
:1030C000B2FBF3F202EBC20303EB0212A1EB8201AB
:1030D000322202EB01116422B1FBF2F101F0F001A6
:1030E00000EBC00202EB001263689B00B2FBF3F23C
:1030F0006423B2FBF3F201EB021200EBC00101EB1F
:10310000001163689B00B1FBF3F100EBC00303EB1C
:1031100000136668B600B3FBF6F36426B3FBF6F360
:1031200003EBC30606EB0313A1EB8301322303EB8E
:1031300001116423B1FBF3F101F00F011144226886
:10314000916070BD00380140014691F83900212896
:103150002CD18868B0F5805F0FD10A6A1088C0F35F
:1031600008000B685860086918B9086A801C086272
:1031700009E0086A401C086205E00B6A581C0862F6
:1031800018780B685860C88C401E80B2C88458B943
:103190000868C06820F080000B68D8600868C068C4
:1031A00040F040000B68D860002070470220FCE728
:1031B0002DE9F04104460D4617469846069E21E04B
:1031C000701CF8B12EB1FDF70DFEA0EB0800B04267
:1031D00018D92068C06820F4D0702168C8602068C1
:1031E000406920F0010021684861202084F83900FE
:1031F00084F83A0000BF002084F8380000BF0320A4
:10320000BDE8F081206800682840A84201D1012073
:1032100000E00020B842D3D00020F1E710B502480A
:10322000FFF7BEF810BD00003401002010B56FF0AC
:1032300001000349096808610148FEF7EEFE10BD70
:103240000C02002010B50248FEF718FF10BD000068
:103250000C02002000BFFEE710B504460B480C49E5
:1032600008600846446000218160C16001610C2152
:10327000416100218161FFF739F908B1FDF7FEFADC
:10328000012204490248FFF7B7F910BD0038014098
:10329000340100200100002002480068C0F3022031
:1032A000704700000CED00E010B5002804DB0A07B1
:1032B000130E054A135406E00A07140E034A00F0E1
:1032C0000F031B1FD45410BD00E400E018ED00E014
:1032D0007047000013B50C460A23012269460248D4
:1032E000FFF7F6F900981CBD3401002000B585B049
:1032F0000020019002900390049000BF1D48806957
:1033000040F004001B4988610846806900F0040011
:10331000009000BF00BF0420019000200290012017
:1033200003900320049001A91348FDF7ADFB14207E
:1033300000F0D6F80B2001900120029003900320AA
:10334000049001A90C48FDF79FFB012208210A48BF
:10335000FDF742FD012202210748FDF73DFD012254
:1033600011460548FDF738FD142000F0B9F805B006
:1033700000BD0000001002400008014010B50246E8
:10338000B2F8D0070844B0F5FA6F01DB012010BD98
:10339000B2F8D4070844B0F5FA6F0EDDB2F8D407DE
:1033A00008444FF4FA6390FBF3F403FB1400B2F803
:1033B000D237984201DB0120E9E70020E7E7024627
:1033C000B2F8D4070844B0F5FA6F01DD0120704768
:1033D0000020FCE7FDF718FDFFF7F3FB00201D4977
:1033E000A1F8D207A1F8D407A1F8D00708461A49D6
:1033F00008604FF41650FFF72FFFFFF709FDFFF7A6
:1034000047FCFFF743FBFFF771FFFFF7EFF9FDF70D
:103410004DF912A0FCF704FF1DA0FCF701FF20A04E
:10342000FCF7FEFE224A002122A0FCF7F9FE0BA0C9
:10343000FCF7F6FE4FF47A7000F052F800202649AF
:1034400008702649088000BFFDF7EAF9FDF760F92A
:10345000FAE700004C030020280000202A2A2A2A2C
:103460002A2A2A2A2A2A2A2A2A2A2A2A2A2A2A2ABC
:103470002A2A2A2A2A2A2A2A2A2A2A2A2A2A2A2AAC
:103480002A2A2A2A2A2A2A2A2A2A0A0D0000000081
:103490002D2D3E506F776572204F6E0A0D00000093
:1034A0002D2D3E56312E322E33350A0D00000000F0
:1034B000C0CA89362D2D3E445820535831323632F9
:1034C000284C4C43433638292054455354203A2540
:1034D000642025640A0D00001C000020220000204A
:1034E00010B5044600BF4FF47A7000F0D9FC201EDE
:1034F000A4F101018CB2F6D110BD0000F8B504466C
:103500000D4600200090AA26B4F8D20701194C48B5
:1035100002886846FCF72AFFB4F8D2672DE0B4F8B9
:10352000D207401C40F2CD7190FBF1F201FB12007A
:10353000A4F8D207B4F8D2070119414802886846B6
:10354000FCF714FF3F4801880088401C3D4A10806A
:10355000C6F5FA60814202DD0020A4F8D207B4F873
:10356000D207B04200D162E0BDF80000002804DDBF
:10357000BDF80000FF2800DA07E0BDF800000028D1
:10358000CDDDBDF80000FF28C9DC00BF00202D49BB
:103590000880B4F8D2072A4909880844BDF8001009
:1035A0000844B0F5FA6F03DD0020A4F8D20704E068
:1035B000204600F0AFF800B139E0B4F8D207204A55
:1035C000128810440119BDF800202846FCF7CEFEF1
:1035D0001B4A1288BDF80030D118B4F8D227101950
:1035E000FCF709FFB4F8D00715490988401ABDF85F
:1035F0000010401A4FF4FA6190FBF1F201FB120047
:10360000A4F8D007B4F8D2070D4909880844BDF8DA
:103610000010084440F2CD7190FBF1F201FB120062
:10362000A4F8D207204600F075F828B100BF0020AA
:10363000A4F8D207A4F8D407BDF80000F8BD000034
:103640002E0000203000002037B504460D46BDF89E
:1036500008002F4A1278104481B22046FFF78EFEF0
:1036600008B100203EBDBDF80800294A1278104478
:1036700081B22046FFF7A3FE58B1BDF808002449E7
:1036800009780844B4F8D217884202DA0020A4F876
:10369000D407BDF808001E4A1278104481B22046B3
:1036A000FFF78DFE90BBB4F8D417081918490A78B3
:1036B00002A9FCF75BFEB4F8D417154A127811443E
:1036C0000819BDF808202946FCF750FEB4F8D407C5
:1036D000BDF8081008440E49097808444FF4FA610F
:1036E00090FBF1F201FB1200A4F8D407B4F8D00764
:1036F000074909780844BDF8081008444FF4FA61F6
:1037000090FBF1F201FB1200A4F8D0072046A9E7D4
:103710002C0000200146B1F8D007002801DC012070
:1037200070470020FCE71CB5044600208DF804001B
:103730008DF805008DF803408DF802000820ADF8E3
:1037400000006946002000F0EBF91CBD014800783C
:1037500070470000240000200149087070470000F5
:10376000240000207CB505460C4609A000680190A5
:1037700020128DF80500E0B28DF806000020034607
:10378000032201A90090284600F0F0F87CBD00005B
:103790000200000010B5014643F60950B1FBF0F2FB
:1037A00002FB1013401000EB833043F60954B0FBCA
:1037B000F4F000EB823010BD014688017047000034
:1037C00010B504210148FDF7FFFA10BD00080140C3
:1037D000FEB506460C460CA0006802900020019041
:1037E000022001AB024602A90090304600F052F8D8
:1037F000054635B99DF805009DF8041000EB012041
:1038000020802846FEBD000012000000FEB50646DE
:103810000C4611A00068029000200190032001AB2B
:10382000022202A90090304600F034F805468DB916
:103830009DF804004042401040B220709DF8050001
:1038400040B2801C801060709DF80600404240101D
:1038500040B2A0702846FEBD14000000FEB506462A
:103860000C460BA00068029000200190022001ABE2
:10387000024602A90090304600F00CF805462DB92A
:103880009DF8040020709DF8050060702846FEBD7C
:10389000130000002DE9F04180460D4614461E46F7
:1038A000069F00BFFFF78CFF0028FBD100221021EC
:1038B0000D48FDF791FA002C03DD21462846FFF75D
:1038C0006FF900BFFFF77CFF0028FBD1002F03DD5D
:1038D00039463046FFF704F9012210210248FDF76E
:1038E0007BFA0020BDE8F0810008014010B50446D5
:1038F00000BFFFF765FF0028FBD11420FFF7F0FDA4
:10390000002208210948FDF767FA3220FFF7E8FD99
:10391000012208210548FDF75FFA1420FFF7E0FDBA
:1039200000BFFFF74DFF0028FBD110BD000801408C
:1039300038B5044600BFFFF743FF0028FBD109A0BC
:1039400000680090002210210748FDF745FA022187
:103950006846FFF725F9012210210348FDF73CFADC
:10396000002038BDC0000000000801402DE9F041F2
:1039700080460D4614461E46069F00BFFFF720FFF7
:103980000028FBD1002210210D48FDF725FA002C5C
:1039900003DD21462846FFF703F900BFFFF710FFBC
:1039A0000028FBD1002F03DD39463046FFF7F8F839
:1039B000012210210248FDF70FFA0020BDE8F08136
:1039C000000801402DE9FC4107460C4615461E46FD
:1039D00006A0006801908DF805402B46032201A93E
:1039E00038460096FFF756FFBDE8FC811E00000038
:1039F0002DE9FC4107460C4615461E4608A0006806
:103A0000019020128DF80500E0B28DF806002B46DB
:103A1000042201A938460096FFF73CFFBDE8FC816F
:103A20001D00000010B504462046FFF75FFF10BDE3
:103A30007CB506460C46154607A0006801908DF837
:103A400005408DF8065000200346032201A900908E
:103A50003046FFF78BFF7CBD8F0000002DE9FF4152
:103A600080460C4615461E460A9F14A207CACDE999
:103A70000212019020128DF80500E0B28DF80600C8
:103A800028128DF80700E8B28DF8080030128DF882
:103A90000900F0B28DF80A0038128DF80B00F8B268
:103AA0008DF80C0000200346092201A90090404631
:103AB000FFF75CFF04B0BDE8F081000008000000E3
:103AC0000000000000000000FEB506460C4612A1F2
:103AD00003C9CDE9010120788DF8050060788DF8E3
:103AE0000600A0788DF80700E07800F001008DF85E
:103AF000080000200346052201A900903046FFF788
:103B000035FF05462DB962780121304600F064F991
:103B100005462846FEBD00008B00000000000000A6
:103B2000FEB506460C4626A103C9CDE90101208851
:103B300000128DF8050020788DF80600A0788DF829
:103B40000700E0788DF80800207908B1012000E036
:103B500000208DF80900607908B1012000E0002004
:103B60008DF80A0000200346072201A90090304684
:103B7000FFF7FCFE05460DBB0020009001236A46BE
:103B800040F236713046FFF733FF0546ADB9607934
:103B9000012805D19DF8000020F00400009004E009
:103BA0009DF8000040F00400009001236A4640F2B6
:103BB0003671304600F05AF9054600BF2846FEBD72
:103BC0008C000000000000003EB505460C460CA12C
:103BD00003C9CDE9010120788DF8050060788DF8E2
:103BE0000600A0788DF80700E0788DF80800002026
:103BF0000346052201A900902846FFF7B7FE3EBD07
:103C000095000000000000007CB505460C4607A0AA
:103C1000006801908DF8054000200346022201A9AA
:103C200000902846FFF7A2FE7CBD00008A0000003D
:103C30007CB505460C4607A0006801908DF805404C
:103C400000200346022201A900902846FFF78EFEBD
:103C50007CBD00009600000070B505460C4620466D
:103C6000FFF798FD06463146284600F001F870BD82
:103C70003EB505460C460CA103C9CDE90101200E55
:103C80008DF80500200C8DF80600200A8DF807003D
:103C9000E0B28DF8080000200346052201A900903B
:103CA0002846FFF763FE3EBD8600000000000000CE
:103CB00070B505460C46B4F5802F01D3022070BDC7
:103CC0002046FFF779FD06463146284600F002F807
:103CD000F5E700007CB505460C460AA00068019097
:103CE000200C8DF80500200A8DF80600E0B28DF852
:103CF000070000200346042201A900902846FFF790
:103D000035FE7CBD820000007CB505460C4607A050
:103D1000006801908DF8054000200346022201A9A9
:103D200000902846FFF722FE7CBD000080000000C6
:103D3000F8B506460C4615468DF800408DF8015042
:103D400002236A4640F61111304600F08FF8F8BDA4
:103D500070B505460C46B4F5802F01D3022070BD26
:103D60002046FFF729FD06463146284600F01AF89E
:103D7000F5E700007CB506460C46154608A000682D
:103D80000190E0B28DF805008DF806500020034642
:103D9000032201A900903046FFF7E8FD7CBD00003A
:103DA0008E0000007CB505460C460AA00068019014
:103DB000200C8DF80500200A8DF80600E0B28DF881
:103DC000070000200346042201A900902846FFF7BF
:103DD000CDFD7CBD83000000F8B507460C461546B6
:103DE0000020009001236A4640F689013846FFF71B
:103DF000FFFD0646E6B9012C0DD1062D05D19DF833
:103E0000000020F0040000900AE09DF8000040F05F
:103E10000400009004E09DF8000040F004000090D1
:103E200001236A4640F68901384600F01FF806462D
:103E30003046F8BD10B504462046FFF779FD10BDA9
:103E40002DE9FC4107460C4615461E4606A00068B3
:103E500001908DF805402B46022201A938460096B4
:103E6000FFF784FDBDE8FC810E0000002DE9FC4158
:103E700007460C4615461E4608A000680190201211
:103E80008DF80500E0B28DF806002B46032201A94B
:103E900038460096FFF76AFDBDE8FC810D00000082
:103EA00070B50446002500BF0A480068C46209488E
:103EB000C46000BF006845620648FEF799F803E059
:103EC00004480068406A85B2A542F9D10148FEF76E
:103ED000B9F870BDCC0100204572726F725F486105
:103EE0006E646C65720000000000000000000102BA
:103EF0000304060708090000000001020304000093
:103F0000203F000800000020340000006C01000881
:103F1000543F0008340000205411000088010008BC
:103F2000000000000024F400000000000000000079
:103F30000000000010000000010000000000000070
:103F4000000000000000000000000000020002006D
:043F5000000000006D
:0400000508000131BD
:00000001FF
